{
    "_format": "hh-sol-artifact-1",
    "contractName": "AuctionManager",
    "sourceName": "contracts/AuctionManager.sol",
    "abi": [
        {
            "inputs": [
                {
                    "internalType": "address",
                    "name": "_auctionToken",
                    "type": "address"
                },
                {
                    "internalType": "address",
                    "name": "_trustedForwarder",
                    "type": "address"
                },
                {
                    "internalType": "address",
                    "name": "_initialOwner",
                    "type": "address"
                }
            ],
            "stateMutability": "nonpayable",
            "type": "constructor"
        },
        {
            "inputs": [
                {
                    "internalType": "address",
                    "name": "owner",
                    "type": "address"
                }
            ],
            "name": "OwnableInvalidOwner",
            "type": "error"
        },
        {
            "inputs": [
                {
                    "internalType": "address",
                    "name": "account",
                    "type": "address"
                }
            ],
            "name": "OwnableUnauthorizedAccount",
            "type": "error"
        },
        {
            "anonymous": false,
            "inputs": [
                {
                    "indexed": true,
                    "internalType": "uint256",
                    "name": "auctionId",
                    "type": "uint256"
                }
            ],
            "name": "AuctionCanceled",
            "type": "event"
        },
        {
            "anonymous": false,
            "inputs": [
                {
                    "indexed": true,
                    "internalType": "uint256",
                    "name": "auctionId",
                    "type": "uint256"
                },
                {
                    "indexed": true,
                    "internalType": "address",
                    "name": "seller",
                    "type": "address"
                },
                {
                    "indexed": false,
                    "internalType": "address",
                    "name": "nftContract",
                    "type": "address"
                },
                {
                    "indexed": false,
                    "internalType": "uint256",
                    "name": "tokenId",
                    "type": "uint256"
                }
            ],
            "name": "AuctionCreated",
            "type": "event"
        },
        {
            "anonymous": false,
            "inputs": [
                {
                    "indexed": true,
                    "internalType": "uint256",
                    "name": "auctionId",
                    "type": "uint256"
                },
                {
                    "indexed": true,
                    "internalType": "address",
                    "name": "winner",
                    "type": "address"
                },
                {
                    "indexed": false,
                    "internalType": "uint256",
                    "name": "amount",
                    "type": "uint256"
                }
            ],
            "name": "AuctionEnded",
            "type": "event"
        },
        {
            "anonymous": false,
            "inputs": [
                {
                    "indexed": true,
                    "internalType": "uint256",
                    "name": "auctionId",
                    "type": "uint256"
                },
                {
                    "indexed": true,
                    "internalType": "address",
                    "name": "bidder",
                    "type": "address"
                },
                {
                    "indexed": false,
                    "internalType": "uint256",
                    "name": "amount",
                    "type": "uint256"
                }
            ],
            "name": "BidPlaced",
            "type": "event"
        },
        {
            "anonymous": false,
            "inputs": [
                {
                    "indexed": true,
                    "internalType": "address",
                    "name": "previousOwner",
                    "type": "address"
                },
                {
                    "indexed": true,
                    "internalType": "address",
                    "name": "newOwner",
                    "type": "address"
                }
            ],
            "name": "OwnershipTransferred",
            "type": "event"
        },
        {
            "inputs": [],
            "name": "auctionToken",
            "outputs": [
                {
                    "internalType": "contract IERC20",
                    "name": "",
                    "type": "address"
                }
            ],
            "stateMutability": "view",
            "type": "function"
        },
        {
            "inputs": [
                {
                    "internalType": "uint256",
                    "name": "",
                    "type": "uint256"
                }
            ],
            "name": "auctions",
            "outputs": [
                {
                    "internalType": "address",
                    "name": "seller",
                    "type": "address"
                },
                {
                    "internalType": "address",
                    "name": "nftContract",
                    "type": "address"
                },
                {
                    "internalType": "uint256",
                    "name": "tokenId",
                    "type": "uint256"
                },
                {
                    "internalType": "uint256",
                    "name": "startPrice",
                    "type": "uint256"
                },
                {
                    "internalType": "uint256",
                    "name": "minIncrement",
                    "type": "uint256"
                },
                {
                    "internalType": "uint256",
                    "name": "highestBid",
                    "type": "uint256"
                },
                {
                    "internalType": "address",
                    "name": "highestBidder",
                    "type": "address"
                },
                {
                    "internalType": "uint256",
                    "name": "endTime",
                    "type": "uint256"
                },
                {
                    "internalType": "bool",
                    "name": "active",
                    "type": "bool"
                }
            ],
            "stateMutability": "view",
            "type": "function"
        },
        {
            "inputs": [
                {
                    "internalType": "uint256",
                    "name": "auctionId",
                    "type": "uint256"
                },
                {
                    "internalType": "uint256",
                    "name": "amount",
                    "type": "uint256"
                }
            ],
            "name": "bid",
            "outputs": [],
            "stateMutability": "nonpayable",
            "type": "function"
        },
        {
            "inputs": [
                {
                    "internalType": "uint256",
                    "name": "auctionId",
                    "type": "uint256"
                }
            ],
            "name": "cancelAuction",
            "outputs": [],
            "stateMutability": "nonpayable",
            "type": "function"
        },
        {
            "inputs": [
                {
                    "internalType": "address",
                    "name": "nftContract",
                    "type": "address"
                },
                {
                    "internalType": "uint256",
                    "name": "tokenId",
                    "type": "uint256"
                },
                {
                    "internalType": "uint256",
                    "name": "startPrice",
                    "type": "uint256"
                },
                {
                    "internalType": "uint256",
                    "name": "minIncrement",
                    "type": "uint256"
                },
                {
                    "internalType": "uint256",
                    "name": "duration",
                    "type": "uint256"
                }
            ],
            "name": "createAuction",
            "outputs": [],
            "stateMutability": "nonpayable",
            "type": "function"
        },
        {
            "inputs": [
                {
                    "internalType": "uint256",
                    "name": "auctionId",
                    "type": "uint256"
                }
            ],
            "name": "endAuction",
            "outputs": [],
            "stateMutability": "nonpayable",
            "type": "function"
        },
        {
            "inputs": [],
            "name": "feePercent",
            "outputs": [
                {
                    "internalType": "uint256",
                    "name": "",
                    "type": "uint256"
                }
            ],
            "stateMutability": "view",
            "type": "function"
        },
        {
            "inputs": [],
            "name": "feeRecipient",
            "outputs": [
                {
                    "internalType": "address",
                    "name": "",
                    "type": "address"
                }
            ],
            "stateMutability": "view",
            "type": "function"
        },
        {
            "inputs": [
                {
                    "internalType": "address",
                    "name": "forwarder",
                    "type": "address"
                }
            ],
            "name": "isTrustedForwarder",
            "outputs": [
                {
                    "internalType": "bool",
                    "name": "",
                    "type": "bool"
                }
            ],
            "stateMutability": "view",
            "type": "function"
        },
        {
            "inputs": [],
            "name": "nextAuctionId",
            "outputs": [
                {
                    "internalType": "uint256",
                    "name": "",
                    "type": "uint256"
                }
            ],
            "stateMutability": "view",
            "type": "function"
        },
        {
            "inputs": [
                {
                    "internalType": "address",
                    "name": "",
                    "type": "address"
                },
                {
                    "internalType": "address",
                    "name": "",
                    "type": "address"
                },
                {
                    "internalType": "uint256",
                    "name": "",
                    "type": "uint256"
                },
                {
                    "internalType": "bytes",
                    "name": "",
                    "type": "bytes"
                }
            ],
            "name": "onERC721Received",
            "outputs": [
                {
                    "internalType": "bytes4",
                    "name": "",
                    "type": "bytes4"
                }
            ],
            "stateMutability": "pure",
            "type": "function"
        },
        {
            "inputs": [],
            "name": "owner",
            "outputs": [
                {
                    "internalType": "address",
                    "name": "",
                    "type": "address"
                }
            ],
            "stateMutability": "view",
            "type": "function"
        },
        {
            "inputs": [],
            "name": "renounceOwnership",
            "outputs": [],
            "stateMutability": "nonpayable",
            "type": "function"
        },
        {
            "inputs": [
                {
                    "internalType": "uint256",
                    "name": "newFee",
                    "type": "uint256"
                }
            ],
            "name": "setFeePercent",
            "outputs": [],
            "stateMutability": "nonpayable",
            "type": "function"
        },
        {
            "inputs": [
                {
                    "internalType": "address",
                    "name": "newRecipient",
                    "type": "address"
                }
            ],
            "name": "setFeeRecipient",
            "outputs": [],
            "stateMutability": "nonpayable",
            "type": "function"
        },
        {
            "inputs": [
                {
                    "internalType": "address",
                    "name": "newOwner",
                    "type": "address"
                }
            ],
            "name": "transferOwnership",
            "outputs": [],
            "stateMutability": "nonpayable",
            "type": "function"
        },
        {
            "inputs": [],
            "name": "trustedForwarder",
            "outputs": [
                {
                    "internalType": "address",
                    "name": "",
                    "type": "address"
                }
            ],
            "stateMutability": "view",
            "type": "function"
        }
    ],
    "bytecode": "0x60a0604052600560025534801561001557600080fd5b50604051612547380380612547833981810160405281019061003791906102a1565b80828073ffffffffffffffffffffffffffffffffffffffff1660808173ffffffffffffffffffffffffffffffffffffffff168152505050600073ffffffffffffffffffffffffffffffffffffffff168173ffffffffffffffffffffffffffffffffffffffff16036100e05760006040517f1e4fbdf70000000000000000000000000000000000000000000000000000000081526004016100d79190610303565b60405180910390fd5b6100ef8161017a60201b60201c565b5082600160006101000a81548173ffffffffffffffffffffffffffffffffffffffff021916908373ffffffffffffffffffffffffffffffffffffffff16021790555033600460006101000a81548173ffffffffffffffffffffffffffffffffffffffff021916908373ffffffffffffffffffffffffffffffffffffffff16021790555050505061031e565b60008060009054906101000a900473ffffffffffffffffffffffffffffffffffffffff169050816000806101000a81548173ffffffffffffffffffffffffffffffffffffffff021916908373ffffffffffffffffffffffffffffffffffffffff1602179055508173ffffffffffffffffffffffffffffffffffffffff168173ffffffffffffffffffffffffffffffffffffffff167f8be0079c531659141344cd1fd0a4f28419497f9722a3daafe3b4186f6b6457e060405160405180910390a35050565b600080fd5b600073ffffffffffffffffffffffffffffffffffffffff82169050919050565b600061026e82610243565b9050919050565b61027e81610263565b811461028957600080fd5b50565b60008151905061029b81610275565b92915050565b6000806000606084860312156102ba576102b961023e565b5b60006102c88682870161028c565b93505060206102d98682870161028c565b92505060406102ea8682870161028c565b9150509250925092565b6102fd81610263565b82525050565b600060208201905061031860008301846102f4565b92915050565b60805161220e610339600039600061085f015261220e6000f3fe608060405234801561001057600080fd5b506004361061010b5760003560e01c80637fd6f15c116100a257806399fdb3201161007157806399fdb3201461029a578063b9a2de3a146102b8578063e74b981b146102d4578063f2fde38b146102f0578063fc5284821461030c5761010b565b80637fd6f15c146102265780638da5cb5b14610244578063961c9ae41461026257806396b5a7551461027e5761010b565b8063598647f8116100de578063598647f8146101c6578063715018a6146101e25780637ce3489b146101ec5780637da0a877146102085761010b565b8063150b7a02146101105780634690484014610140578063571a26a01461015e578063572b6c0514610196575b600080fd5b61012a6004803603810190610125919061177f565b61032a565b6040516101379190611842565b60405180910390f35b61014861033f565b604051610155919061186c565b60405180910390f35b61017860048036038101906101739190611887565b610365565b60405161018d999897969594939291906118de565b60405180910390f35b6101b060048036038101906101ab919061196b565b610420565b6040516101bd9190611998565b60405180910390f35b6101e060048036038101906101db91906119b3565b61045f565b005b6101ea6107f1565b005b61020660048036038101906102019190611887565b610805565b005b61021061085b565b60405161021d919061186c565b60405180910390f35b61022e610883565b60405161023b91906119f3565b60405180910390f35b61024c610889565b604051610259919061186c565b60405180910390f35b61027c60048036038101906102779190611a0e565b6108b2565b005b61029860048036038101906102939190611887565b610bea565b005b6102a2610e87565b6040516102af9190611ae8565b60405180910390f35b6102d260048036038101906102cd9190611887565b610ead565b005b6102ee60048036038101906102e9919061196b565b6113b5565b005b61030a6004803603810190610305919061196b565b611401565b005b610314611487565b60405161032191906119f3565b60405180910390f35b600063150b7a0260e01b905095945050505050565b600460009054906101000a900473ffffffffffffffffffffffffffffffffffffffff1681565b60056020528060005260406000206000915090508060000160009054906101000a900473ffffffffffffffffffffffffffffffffffffffff16908060010160009054906101000a900473ffffffffffffffffffffffffffffffffffffffff16908060020154908060030154908060040154908060050154908060060160009054906101000a900473ffffffffffffffffffffffffffffffffffffffff16908060070154908060080160009054906101000a900460ff16905089565b600061042a61085b565b73ffffffffffffffffffffffffffffffffffffffff168273ffffffffffffffffffffffffffffffffffffffff16149050919050565b600061046961148d565b905060006005600085815260200190815260200160002090508060080160009054906101000a900460ff166104d3576040517f08c379a00000000000000000000000000000000000000000000000000000000081526004016104ca90611b60565b60405180910390fd5b80600701544210610519576040517f08c379a000000000000000000000000000000000000000000000000000000000815260040161051090611bcc565b60405180910390fd5b60008082600501541461053f578160040154826005015461053a9190611c1b565b610545565b81600301545b90508084101561058a576040517f08c379a000000000000000000000000000000000000000000000000000000000815260040161058190611c9b565b60405180910390fd5b600160009054906101000a900473ffffffffffffffffffffffffffffffffffffffff1673ffffffffffffffffffffffffffffffffffffffff166323b872dd8430876040518463ffffffff1660e01b81526004016105e993929190611cbb565b6020604051808303816000875af1158015610608573d6000803e3d6000fd5b505050506040513d601f19601f8201168201806040525081019061062c9190611d1e565b50600073ffffffffffffffffffffffffffffffffffffffff168260060160009054906101000a900473ffffffffffffffffffffffffffffffffffffffff1673ffffffffffffffffffffffffffffffffffffffff161461074f57600160009054906101000a900473ffffffffffffffffffffffffffffffffffffffff1673ffffffffffffffffffffffffffffffffffffffff1663a9059cbb8360060160009054906101000a900473ffffffffffffffffffffffffffffffffffffffff1684600501546040518363ffffffff1660e01b815260040161070a929190611d4b565b6020604051808303816000875af1158015610729573d6000803e3d6000fd5b505050506040513d601f19601f8201168201806040525081019061074d9190611d1e565b505b838260050181905550828260060160006101000a81548173ffffffffffffffffffffffffffffffffffffffff021916908373ffffffffffffffffffffffffffffffffffffffff1602179055508273ffffffffffffffffffffffffffffffffffffffff16857f0e54eff26401bf69b81b26f60bd85ef47f5d85275c1d268d84f68d6897431c47866040516107e291906119f3565b60405180910390a35050505050565b6107f961149c565b6108036000611523565b565b61080d61149c565b6014811115610851576040517f08c379a000000000000000000000000000000000000000000000000000000000815260040161084890611dc0565b60405180910390fd5b8060028190555050565b60007f0000000000000000000000000000000000000000000000000000000000000000905090565b60025481565b60008060009054906101000a900473ffffffffffffffffffffffffffffffffffffffff16905090565b60006108bc61148d565b90503073ffffffffffffffffffffffffffffffffffffffff168673ffffffffffffffffffffffffffffffffffffffff16636352211e876040518263ffffffff1660e01b815260040161090e91906119f3565b602060405180830381865afa15801561092b573d6000803e3d6000fd5b505050506040513d601f19601f8201168201806040525081019061094f9190611df5565b73ffffffffffffffffffffffffffffffffffffffff16146109a5576040517f08c379a000000000000000000000000000000000000000000000000000000000815260040161099c90611e6e565b60405180910390fd5b6040518061012001604052808273ffffffffffffffffffffffffffffffffffffffff1681526020018773ffffffffffffffffffffffffffffffffffffffff16815260200186815260200185815260200184815260200160008152602001600073ffffffffffffffffffffffffffffffffffffffff1681526020018342610a2b9190611c1b565b81526020016001151581525060056000600354815260200190815260200160002060008201518160000160006101000a81548173ffffffffffffffffffffffffffffffffffffffff021916908373ffffffffffffffffffffffffffffffffffffffff16021790555060208201518160010160006101000a81548173ffffffffffffffffffffffffffffffffffffffff021916908373ffffffffffffffffffffffffffffffffffffffff16021790555060408201518160020155606082015181600301556080820151816004015560a0820151816005015560c08201518160060160006101000a81548173ffffffffffffffffffffffffffffffffffffffff021916908373ffffffffffffffffffffffffffffffffffffffff16021790555060e082015181600701556101008201518160080160006101000a81548160ff0219169083151502179055509050508073ffffffffffffffffffffffffffffffffffffffff166003547f8777bed2a899ba8843de663a1f6ed1c48d071cc8bde08e2488b59c00c1993f768888604051610bc2929190611d4b565b60405180910390a360036000815480929190610bdd90611e8e565b9190505550505050505050565b60006005600083815260200190815260200160002090508060080160009054906101000a900460ff16610c52576040517f08c379a0000000000000000000000000000000000000000000000000000000008152600401610c4990611b60565b60405180910390fd5b610c5a61148d565b73ffffffffffffffffffffffffffffffffffffffff168160000160009054906101000a900473ffffffffffffffffffffffffffffffffffffffff1673ffffffffffffffffffffffffffffffffffffffff1614610ceb576040517f08c379a0000000000000000000000000000000000000000000000000000000008152600401610ce290611f22565b60405180910390fd5b600073ffffffffffffffffffffffffffffffffffffffff168160060160009054906101000a900473ffffffffffffffffffffffffffffffffffffffff1673ffffffffffffffffffffffffffffffffffffffff1614610d7e576040517f08c379a0000000000000000000000000000000000000000000000000000000008152600401610d7590611f8e565b60405180910390fd5b60008160080160006101000a81548160ff0219169083151502179055508060010160009054906101000a900473ffffffffffffffffffffffffffffffffffffffff1673ffffffffffffffffffffffffffffffffffffffff166342842e0e308360000160009054906101000a900473ffffffffffffffffffffffffffffffffffffffff1684600201546040518463ffffffff1660e01b8152600401610e2493929190611cbb565b600060405180830381600087803b158015610e3e57600080fd5b505af1158015610e52573d6000803e3d6000fd5b50505050817f28601d865dccc9f113e15a7185c1b38c085d598c71250d3337916a428536d77160405160405180910390a25050565b600160009054906101000a900473ffffffffffffffffffffffffffffffffffffffff1681565b60006005600083815260200190815260200160002090508060080160009054906101000a900460ff16610f15576040517f08c379a0000000000000000000000000000000000000000000000000000000008152600401610f0c90611b60565b60405180910390fd5b8060070154421015610f5c576040517f08c379a0000000000000000000000000000000000000000000000000000000008152600401610f5390611ffa565b60405180910390fd5b60008160080160006101000a81548160ff021916908315150217905550600073ffffffffffffffffffffffffffffffffffffffff168160060160009054906101000a900473ffffffffffffffffffffffffffffffffffffffff1673ffffffffffffffffffffffffffffffffffffffff16146112c857600060646002548360050154610fe7919061201a565b610ff1919061208b565b9050600081836005015461100591906120bc565b9050600160009054906101000a900473ffffffffffffffffffffffffffffffffffffffff1673ffffffffffffffffffffffffffffffffffffffff1663a9059cbb8460000160009054906101000a900473ffffffffffffffffffffffffffffffffffffffff16836040518363ffffffff1660e01b8152600401611088929190611d4b565b6020604051808303816000875af11580156110a7573d6000803e3d6000fd5b505050506040513d601f19601f820116820180604052508101906110cb9190611d1e565b50600160009054906101000a900473ffffffffffffffffffffffffffffffffffffffff1673ffffffffffffffffffffffffffffffffffffffff1663a9059cbb600460009054906101000a900473ffffffffffffffffffffffffffffffffffffffff16846040518363ffffffff1660e01b815260040161114b929190611d4b565b6020604051808303816000875af115801561116a573d6000803e3d6000fd5b505050506040513d601f19601f8201168201806040525081019061118e9190611d1e565b508260010160009054906101000a900473ffffffffffffffffffffffffffffffffffffffff1673ffffffffffffffffffffffffffffffffffffffff166342842e0e308560060160009054906101000a900473ffffffffffffffffffffffffffffffffffffffff1686600201546040518463ffffffff1660e01b815260040161121893929190611cbb565b600060405180830381600087803b15801561123257600080fd5b505af1158015611246573d6000803e3d6000fd5b505050508260060160009054906101000a900473ffffffffffffffffffffffffffffffffffffffff1673ffffffffffffffffffffffffffffffffffffffff16847fd2aa34a4fdbbc6dff6a3e56f46e0f3ae2a31d7785ff3487aa5c95c642acea50185600501546040516112b991906119f3565b60405180910390a350506113b1565b8060010160009054906101000a900473ffffffffffffffffffffffffffffffffffffffff1673ffffffffffffffffffffffffffffffffffffffff166342842e0e308360000160009054906101000a900473ffffffffffffffffffffffffffffffffffffffff1684600201546040518463ffffffff1660e01b815260040161135193929190611cbb565b600060405180830381600087803b15801561136b57600080fd5b505af115801561137f573d6000803e3d6000fd5b50505050817f28601d865dccc9f113e15a7185c1b38c085d598c71250d3337916a428536d77160405160405180910390a25b5050565b6113bd61149c565b80600460006101000a81548173ffffffffffffffffffffffffffffffffffffffff021916908373ffffffffffffffffffffffffffffffffffffffff16021790555050565b61140961149c565b600073ffffffffffffffffffffffffffffffffffffffff168173ffffffffffffffffffffffffffffffffffffffff160361147b5760006040517f1e4fbdf7000000000000000000000000000000000000000000000000000000008152600401611472919061186c565b60405180910390fd5b61148481611523565b50565b60035481565b60006114976115e7565b905090565b6114a461148d565b73ffffffffffffffffffffffffffffffffffffffff166114c2610889565b73ffffffffffffffffffffffffffffffffffffffff1614611521576114e561148d565b6040517f118cdaa7000000000000000000000000000000000000000000000000000000008152600401611518919061186c565b60405180910390fd5b565b60008060009054906101000a900473ffffffffffffffffffffffffffffffffffffffff169050816000806101000a81548173ffffffffffffffffffffffffffffffffffffffff021916908373ffffffffffffffffffffffffffffffffffffffff1602179055508173ffffffffffffffffffffffffffffffffffffffff168173ffffffffffffffffffffffffffffffffffffffff167f8be0079c531659141344cd1fd0a4f28419497f9722a3daafe3b4186f6b6457e060405160405180910390a35050565b6000806000369050905060006115fb61165c565b905061160633610420565b80156116125750808210155b1561164c57600036828461162691906120bc565b908092611635939291906120fa565b906116409190612179565b60601c92505050611659565b61165461166b565b925050505b90565b6000611666611673565b905090565b600033905090565b60006014905090565b600080fd5b600080fd5b600073ffffffffffffffffffffffffffffffffffffffff82169050919050565b60006116b182611686565b9050919050565b6116c1816116a6565b81146116cc57600080fd5b50565b6000813590506116de816116b8565b92915050565b6000819050919050565b6116f7816116e4565b811461170257600080fd5b50565b600081359050611714816116ee565b92915050565b600080fd5b600080fd5b600080fd5b60008083601f84011261173f5761173e61171a565b5b8235905067ffffffffffffffff81111561175c5761175b61171f565b5b60208301915083600182028301111561177857611777611724565b5b9250929050565b60008060008060006080868803121561179b5761179a61167c565b5b60006117a9888289016116cf565b95505060206117ba888289016116cf565b94505060406117cb88828901611705565b935050606086013567ffffffffffffffff8111156117ec576117eb611681565b5b6117f888828901611729565b92509250509295509295909350565b60007fffffffff0000000000000000000000000000000000000000000000000000000082169050919050565b61183c81611807565b82525050565b60006020820190506118576000830184611833565b92915050565b611866816116a6565b82525050565b6000602082019050611881600083018461185d565b92915050565b60006020828403121561189d5761189c61167c565b5b60006118ab84828501611705565b91505092915050565b6118bd816116e4565b82525050565b60008115159050919050565b6118d8816118c3565b82525050565b6000610120820190506118f4600083018c61185d565b611901602083018b61185d565b61190e604083018a6118b4565b61191b60608301896118b4565b61192860808301886118b4565b61193560a08301876118b4565b61194260c083018661185d565b61194f60e08301856118b4565b61195d6101008301846118cf565b9a9950505050505050505050565b6000602082840312156119815761198061167c565b5b600061198f848285016116cf565b91505092915050565b60006020820190506119ad60008301846118cf565b92915050565b600080604083850312156119ca576119c961167c565b5b60006119d885828601611705565b92505060206119e985828601611705565b9150509250929050565b6000602082019050611a0860008301846118b4565b92915050565b600080600080600060a08688031215611a2a57611a2961167c565b5b6000611a38888289016116cf565b9550506020611a4988828901611705565b9450506040611a5a88828901611705565b9350506060611a6b88828901611705565b9250506080611a7c88828901611705565b9150509295509295909350565b6000819050919050565b6000611aae611aa9611aa484611686565b611a89565b611686565b9050919050565b6000611ac082611a93565b9050919050565b6000611ad282611ab5565b9050919050565b611ae281611ac7565b82525050565b6000602082019050611afd6000830184611ad9565b92915050565b600082825260208201905092915050565b7f41756374696f6e20696e61637469766500000000000000000000000000000000600082015250565b6000611b4a601083611b03565b9150611b5582611b14565b602082019050919050565b60006020820190508181036000830152611b7981611b3d565b9050919050565b7f41756374696f6e20656e64656400000000000000000000000000000000000000600082015250565b6000611bb6600d83611b03565b9150611bc182611b80565b602082019050919050565b60006020820190508181036000830152611be581611ba9565b9050919050565b7f4e487b7100000000000000000000000000000000000000000000000000000000600052601160045260246000fd5b6000611c26826116e4565b9150611c31836116e4565b9250828201905080821115611c4957611c48611bec565b5b92915050565b7f42696420746f6f206c6f77000000000000000000000000000000000000000000600082015250565b6000611c85600b83611b03565b9150611c9082611c4f565b602082019050919050565b60006020820190508181036000830152611cb481611c78565b9050919050565b6000606082019050611cd0600083018661185d565b611cdd602083018561185d565b611cea60408301846118b4565b949350505050565b611cfb816118c3565b8114611d0657600080fd5b50565b600081519050611d1881611cf2565b92915050565b600060208284031215611d3457611d3361167c565b5b6000611d4284828501611d09565b91505092915050565b6000604082019050611d60600083018561185d565b611d6d60208301846118b4565b9392505050565b7f4d61782032302500000000000000000000000000000000000000000000000000600082015250565b6000611daa600783611b03565b9150611db582611d74565b602082019050919050565b60006020820190508181036000830152611dd981611d9d565b9050919050565b600081519050611def816116b8565b92915050565b600060208284031215611e0b57611e0a61167c565b5b6000611e1984828501611de0565b91505092915050565b7f4e4654206e6f7420657363726f77656400000000000000000000000000000000600082015250565b6000611e58601083611b03565b9150611e6382611e22565b602082019050919050565b60006020820190508181036000830152611e8781611e4b565b9050919050565b6000611e99826116e4565b91507fffffffffffffffffffffffffffffffffffffffffffffffffffffffffffffffff8203611ecb57611eca611bec565b5b600182019050919050565b7f4e6f742073656c6c657200000000000000000000000000000000000000000000600082015250565b6000611f0c600a83611b03565b9150611f1782611ed6565b602082019050919050565b60006020820190508181036000830152611f3b81611eff565b9050919050565b7f43616e6e6f74206361616e63656c206166746572206269647300000000000000600082015250565b6000611f78601983611b03565b9150611f8382611f42565b602082019050919050565b60006020820190508181036000830152611fa781611f6b565b9050919050565b7f41756374696f6e206f6e676f696e670000000000000000000000000000000000600082015250565b6000611fe4600f83611b03565b9150611fef82611fae565b602082019050919050565b6000602082019050818103600083015261201381611fd7565b9050919050565b6000612025826116e4565b9150612030836116e4565b925082820261203e816116e4565b9150828204841483151761205557612054611bec565b5b5092915050565b7f4e487b7100000000000000000000000000000000000000000000000000000000600052601260045260246000fd5b6000612096826116e4565b91506120a1836116e4565b9250826120b1576120b061205c565b5b828204905092915050565b60006120c7826116e4565b91506120d2836116e4565b92508282039050818111156120ea576120e9611bec565b5b92915050565b600080fd5b600080fd5b6000808585111561210e5761210d6120f0565b5b8386111561211f5761211e6120f5565b5b6001850283019150848603905094509492505050565b600082905092915050565b60007fffffffffffffffffffffffffffffffffffffffff00000000000000000000000082169050919050565b600082821b905092915050565b60006121858383612135565b826121908135612140565b925060148210156121d0576121cb7fffffffffffffffffffffffffffffffffffffffff0000000000000000000000008360140360080261216c565b831692505b50509291505056fea2646970667358221220961c17c069c47b10e5dc9a5cb5ee4c46d7557674dbd6d6f6007c16455477a71364736f6c634300081c0033",
    "linkReferences": {},
    "deployedLinkReferences": {}
}