{
  "_format": "hh-sol-artifact-1",
  "contractName": "AuctionManager",
  "sourceName": "contracts/AuctionManager.sol",
  "abi": [
    {
      "inputs": [
        {
          "internalType": "address",
          "name": "_auctionToken",
          "type": "address"
        },
        {
          "internalType": "address",
          "name": "_trustedForwarder",
          "type": "address"
        },
        {
          "internalType": "address",
          "name": "_initialOwner",
          "type": "address"
        }
      ],
      "stateMutability": "nonpayable",
      "type": "constructor"
    },
    {
      "inputs": [
        {
          "internalType": "address",
          "name": "owner",
          "type": "address"
        }
      ],
      "name": "OwnableInvalidOwner",
      "type": "error"
    },
    {
      "inputs": [
        {
          "internalType": "address",
          "name": "account",
          "type": "address"
        }
      ],
      "name": "OwnableUnauthorizedAccount",
      "type": "error"
    },
    {
      "anonymous": false,
      "inputs": [
        {
          "indexed": true,
          "internalType": "uint256",
          "name": "auctionId",
          "type": "uint256"
        }
      ],
      "name": "AuctionCanceled",
      "type": "event"
    },
    {
      "anonymous": false,
      "inputs": [
        {
          "indexed": true,
          "internalType": "uint256",
          "name": "auctionId",
          "type": "uint256"
        },
        {
          "indexed": true,
          "internalType": "address",
          "name": "seller",
          "type": "address"
        },
        {
          "indexed": false,
          "internalType": "address",
          "name": "nftContract",
          "type": "address"
        },
        {
          "indexed": false,
          "internalType": "uint256",
          "name": "tokenId",
          "type": "uint256"
        }
      ],
      "name": "AuctionCreated",
      "type": "event"
    },
    {
      "anonymous": false,
      "inputs": [
        {
          "indexed": true,
          "internalType": "uint256",
          "name": "auctionId",
          "type": "uint256"
        },
        {
          "indexed": true,
          "internalType": "address",
          "name": "winner",
          "type": "address"
        },
        {
          "indexed": false,
          "internalType": "uint256",
          "name": "amount",
          "type": "uint256"
        }
      ],
      "name": "AuctionEnded",
      "type": "event"
    },
    {
      "anonymous": false,
      "inputs": [
        {
          "indexed": true,
          "internalType": "uint256",
          "name": "auctionId",
          "type": "uint256"
        },
        {
          "indexed": true,
          "internalType": "address",
          "name": "bidder",
          "type": "address"
        },
        {
          "indexed": false,
          "internalType": "uint256",
          "name": "amount",
          "type": "uint256"
        }
      ],
      "name": "BidPlaced",
      "type": "event"
    },
    {
      "anonymous": false,
      "inputs": [
        {
          "indexed": true,
          "internalType": "address",
          "name": "previousOwner",
          "type": "address"
        },
        {
          "indexed": true,
          "internalType": "address",
          "name": "newOwner",
          "type": "address"
        }
      ],
      "name": "OwnershipTransferred",
      "type": "event"
    },
    {
      "inputs": [],
      "name": "auctionToken",
      "outputs": [
        {
          "internalType": "contract IERC20",
          "name": "",
          "type": "address"
        }
      ],
      "stateMutability": "view",
      "type": "function"
    },
    {
      "inputs": [
        {
          "internalType": "uint256",
          "name": "",
          "type": "uint256"
        }
      ],
      "name": "auctions",
      "outputs": [
        {
          "internalType": "address",
          "name": "seller",
          "type": "address"
        },
        {
          "internalType": "address",
          "name": "nftContract",
          "type": "address"
        },
        {
          "internalType": "uint256",
          "name": "tokenId",
          "type": "uint256"
        },
        {
          "internalType": "uint256",
          "name": "startPrice",
          "type": "uint256"
        },
        {
          "internalType": "uint256",
          "name": "minIncrement",
          "type": "uint256"
        },
        {
          "internalType": "uint256",
          "name": "highestBid",
          "type": "uint256"
        },
        {
          "internalType": "address",
          "name": "highestBidder",
          "type": "address"
        },
        {
          "internalType": "uint256",
          "name": "endTime",
          "type": "uint256"
        },
        {
          "internalType": "bool",
          "name": "active",
          "type": "bool"
        }
      ],
      "stateMutability": "view",
      "type": "function"
    },
    {
      "inputs": [
        {
          "internalType": "uint256",
          "name": "auctionId",
          "type": "uint256"
        },
        {
          "internalType": "uint256",
          "name": "amount",
          "type": "uint256"
        }
      ],
      "name": "bid",
      "outputs": [],
      "stateMutability": "nonpayable",
      "type": "function"
    },
    {
      "inputs": [
        {
          "internalType": "uint256",
          "name": "auctionId",
          "type": "uint256"
        },
        {
          "internalType": "uint256",
          "name": "amount",
          "type": "uint256"
        },
        {
          "internalType": "uint256",
          "name": "deadline",
          "type": "uint256"
        },
        {
          "internalType": "uint8",
          "name": "v",
          "type": "uint8"
        },
        {
          "internalType": "bytes32",
          "name": "r",
          "type": "bytes32"
        },
        {
          "internalType": "bytes32",
          "name": "s",
          "type": "bytes32"
        }
      ],
      "name": "bidWithPermit",
      "outputs": [],
      "stateMutability": "nonpayable",
      "type": "function"
    },
    {
      "inputs": [
        {
          "internalType": "uint256",
          "name": "auctionId",
          "type": "uint256"
        }
      ],
      "name": "cancelAuction",
      "outputs": [],
      "stateMutability": "nonpayable",
      "type": "function"
    },
    {
      "inputs": [
        {
          "internalType": "address",
          "name": "nftContract",
          "type": "address"
        },
        {
          "internalType": "uint256",
          "name": "tokenId",
          "type": "uint256"
        },
        {
          "internalType": "uint256",
          "name": "startPrice",
          "type": "uint256"
        },
        {
          "internalType": "uint256",
          "name": "minIncrement",
          "type": "uint256"
        },
        {
          "internalType": "uint256",
          "name": "duration",
          "type": "uint256"
        }
      ],
      "name": "createAuction",
      "outputs": [],
      "stateMutability": "nonpayable",
      "type": "function"
    },
    {
      "inputs": [
        {
          "internalType": "uint256",
          "name": "auctionId",
          "type": "uint256"
        }
      ],
      "name": "endAuction",
      "outputs": [],
      "stateMutability": "nonpayable",
      "type": "function"
    },
    {
      "inputs": [],
      "name": "feePercent",
      "outputs": [
        {
          "internalType": "uint256",
          "name": "",
          "type": "uint256"
        }
      ],
      "stateMutability": "view",
      "type": "function"
    },
    {
      "inputs": [],
      "name": "feeRecipient",
      "outputs": [
        {
          "internalType": "address",
          "name": "",
          "type": "address"
        }
      ],
      "stateMutability": "view",
      "type": "function"
    },
    {
      "inputs": [
        {
          "internalType": "address",
          "name": "forwarder",
          "type": "address"
        }
      ],
      "name": "isTrustedForwarder",
      "outputs": [
        {
          "internalType": "bool",
          "name": "",
          "type": "bool"
        }
      ],
      "stateMutability": "view",
      "type": "function"
    },
    {
      "inputs": [],
      "name": "nextAuctionId",
      "outputs": [
        {
          "internalType": "uint256",
          "name": "",
          "type": "uint256"
        }
      ],
      "stateMutability": "view",
      "type": "function"
    },
    {
      "inputs": [
        {
          "internalType": "address",
          "name": "",
          "type": "address"
        },
        {
          "internalType": "address",
          "name": "",
          "type": "address"
        },
        {
          "internalType": "uint256",
          "name": "",
          "type": "uint256"
        },
        {
          "internalType": "bytes",
          "name": "",
          "type": "bytes"
        }
      ],
      "name": "onERC721Received",
      "outputs": [
        {
          "internalType": "bytes4",
          "name": "",
          "type": "bytes4"
        }
      ],
      "stateMutability": "pure",
      "type": "function"
    },
    {
      "inputs": [],
      "name": "owner",
      "outputs": [
        {
          "internalType": "address",
          "name": "",
          "type": "address"
        }
      ],
      "stateMutability": "view",
      "type": "function"
    },
    {
      "inputs": [],
      "name": "renounceOwnership",
      "outputs": [],
      "stateMutability": "nonpayable",
      "type": "function"
    },
    {
      "inputs": [
        {
          "internalType": "uint256",
          "name": "newFee",
          "type": "uint256"
        }
      ],
      "name": "setFeePercent",
      "outputs": [],
      "stateMutability": "nonpayable",
      "type": "function"
    },
    {
      "inputs": [
        {
          "internalType": "address",
          "name": "newRecipient",
          "type": "address"
        }
      ],
      "name": "setFeeRecipient",
      "outputs": [],
      "stateMutability": "nonpayable",
      "type": "function"
    },
    {
      "inputs": [
        {
          "internalType": "address",
          "name": "newOwner",
          "type": "address"
        }
      ],
      "name": "transferOwnership",
      "outputs": [],
      "stateMutability": "nonpayable",
      "type": "function"
    },
    {
      "inputs": [],
      "name": "trustedForwarder",
      "outputs": [
        {
          "internalType": "address",
          "name": "",
          "type": "address"
        }
      ],
      "stateMutability": "view",
      "type": "function"
    }
  ],
  "bytecode": "0x60a0604052600560025534801561001557600080fd5b50604051612804380380612804833981810160405281019061003791906102a1565b80828073ffffffffffffffffffffffffffffffffffffffff1660808173ffffffffffffffffffffffffffffffffffffffff168152505050600073ffffffffffffffffffffffffffffffffffffffff168173ffffffffffffffffffffffffffffffffffffffff16036100e05760006040517f1e4fbdf70000000000000000000000000000000000000000000000000000000081526004016100d79190610303565b60405180910390fd5b6100ef8161017a60201b60201c565b5082600160006101000a81548173ffffffffffffffffffffffffffffffffffffffff021916908373ffffffffffffffffffffffffffffffffffffffff16021790555033600460006101000a81548173ffffffffffffffffffffffffffffffffffffffff021916908373ffffffffffffffffffffffffffffffffffffffff16021790555050505061031e565b60008060009054906101000a900473ffffffffffffffffffffffffffffffffffffffff169050816000806101000a81548173ffffffffffffffffffffffffffffffffffffffff021916908373ffffffffffffffffffffffffffffffffffffffff1602179055508173ffffffffffffffffffffffffffffffffffffffff168173ffffffffffffffffffffffffffffffffffffffff167f8be0079c531659141344cd1fd0a4f28419497f9722a3daafe3b4186f6b6457e060405160405180910390a35050565b600080fd5b600073ffffffffffffffffffffffffffffffffffffffff82169050919050565b600061026e82610243565b9050919050565b61027e81610263565b811461028957600080fd5b50565b60008151905061029b81610275565b92915050565b6000806000606084860312156102ba576102b961023e565b5b60006102c88682870161028c565b93505060206102d98682870161028c565b92505060406102ea8682870161028c565b9150509250925092565b6102fd81610263565b82525050565b600060208201905061031860008301846102f4565b92915050565b6080516124cb610339600039600061051001526124cb6000f3fe608060405234801561001057600080fd5b50600436106101165760003560e01c80638da5cb5b116100a257806399fdb3201161007157806399fdb320146102c1578063b9a2de3a146102df578063e74b981b146102fb578063f2fde38b14610317578063fc5284821461033357610116565b80638da5cb5b1461024f578063924963371461026d578063961c9ae41461028957806396b5a755146102a557610116565b8063598647f8116100e9578063598647f8146101d1578063715018a6146101ed5780637ce3489b146101f75780637da0a877146102135780637fd6f15c1461023157610116565b8063150b7a021461011b578063469048401461014b578063571a26a014610169578063572b6c05146101a1575b600080fd5b610135600480360381019061013091906118b3565b610351565b6040516101429190611976565b60405180910390f35b610153610366565b60405161016091906119a0565b60405180910390f35b610183600480360381019061017e91906119bb565b61038c565b60405161019899989796959493929190611a12565b60405180910390f35b6101bb60048036038101906101b69190611a9f565b610447565b6040516101c89190611acc565b60405180910390f35b6101eb60048036038101906101e69190611ae7565b610486565b005b6101f56104a2565b005b610211600480360381019061020c91906119bb565b6104b6565b005b61021b61050c565b60405161022891906119a0565b60405180910390f35b610239610534565b6040516102469190611b27565b60405180910390f35b61025761053a565b60405161026491906119a0565b60405180910390f35b61028760048036038101906102829190611bb1565b610563565b005b6102a3600480360381019061029e9190611c3e565b61061c565b005b6102bf60048036038101906102ba91906119bb565b610954565b005b6102c9610c35565b6040516102d69190611d18565b60405180910390f35b6102f960048036038101906102f491906119bb565b610c5b565b005b61031560048036038101906103109190611a9f565b611163565b005b610331600480360381019061032c9190611a9f565b6111af565b005b61033b611235565b6040516103489190611b27565b60405180910390f35b600063150b7a0260e01b905095945050505050565b600460009054906101000a900473ffffffffffffffffffffffffffffffffffffffff1681565b60056020528060005260406000206000915090508060000160009054906101000a900473ffffffffffffffffffffffffffffffffffffffff16908060010160009054906101000a900473ffffffffffffffffffffffffffffffffffffffff16908060020154908060030154908060040154908060050154908060060160009054906101000a900473ffffffffffffffffffffffffffffffffffffffff16908060070154908060080160009054906101000a900460ff16905089565b600061045161050c565b73ffffffffffffffffffffffffffffffffffffffff168273ffffffffffffffffffffffffffffffffffffffff16149050919050565b600061049061123b565b905061049d83838361124a565b505050565b6104aa6115d0565b6104b46000611657565b565b6104be6115d0565b6014811115610502576040517f08c379a00000000000000000000000000000000000000000000000000000000081526004016104f990611d90565b60405180910390fd5b8060028190555050565b60007f0000000000000000000000000000000000000000000000000000000000000000905090565b60025481565b60008060009054906101000a900473ffffffffffffffffffffffffffffffffffffffff16905090565b600061056d61123b565b9050600160009054906101000a900473ffffffffffffffffffffffffffffffffffffffff1673ffffffffffffffffffffffffffffffffffffffff1663d505accf823089898989896040518863ffffffff1660e01b81526004016105d69796959493929190611dce565b600060405180830381600087803b1580156105f057600080fd5b505af1158015610604573d6000803e3d6000fd5b5050505061061387878361124a565b50505050505050565b600061062661123b565b90503073ffffffffffffffffffffffffffffffffffffffff168673ffffffffffffffffffffffffffffffffffffffff16636352211e876040518263ffffffff1660e01b81526004016106789190611b27565b602060405180830381865afa158015610695573d6000803e3d6000fd5b505050506040513d601f19601f820116820180604052508101906106b99190611e52565b73ffffffffffffffffffffffffffffffffffffffff161461070f576040517f08c379a000000000000000000000000000000000000000000000000000000000815260040161070690611ecb565b60405180910390fd5b6040518061012001604052808273ffffffffffffffffffffffffffffffffffffffff1681526020018773ffffffffffffffffffffffffffffffffffffffff16815260200186815260200185815260200184815260200160008152602001600073ffffffffffffffffffffffffffffffffffffffff16815260200183426107959190611f1a565b81526020016001151581525060056000600354815260200190815260200160002060008201518160000160006101000a81548173ffffffffffffffffffffffffffffffffffffffff021916908373ffffffffffffffffffffffffffffffffffffffff16021790555060208201518160010160006101000a81548173ffffffffffffffffffffffffffffffffffffffff021916908373ffffffffffffffffffffffffffffffffffffffff16021790555060408201518160020155606082015181600301556080820151816004015560a0820151816005015560c08201518160060160006101000a81548173ffffffffffffffffffffffffffffffffffffffff021916908373ffffffffffffffffffffffffffffffffffffffff16021790555060e082015181600701556101008201518160080160006101000a81548160ff0219169083151502179055509050508073ffffffffffffffffffffffffffffffffffffffff166003547f8777bed2a899ba8843de663a1f6ed1c48d071cc8bde08e2488b59c00c1993f76888860405161092c929190611f4e565b60405180910390a36003600081548092919061094790611f77565b9190505550505050505050565b60006005600083815260200190815260200160002090508060080160009054906101000a900460ff166109bc576040517f08c379a00000000000000000000000000000000000000000000000000000000081526004016109b39061200b565b60405180910390fd5b6109c461123b565b73ffffffffffffffffffffffffffffffffffffffff168160000160009054906101000a900473ffffffffffffffffffffffffffffffffffffffff1673ffffffffffffffffffffffffffffffffffffffff161480610a5a5750610a2461053a565b73ffffffffffffffffffffffffffffffffffffffff16610a4261123b565b73ffffffffffffffffffffffffffffffffffffffff16145b610a99576040517f08c379a0000000000000000000000000000000000000000000000000000000008152600401610a9090612077565b60405180910390fd5b600073ffffffffffffffffffffffffffffffffffffffff168160060160009054906101000a900473ffffffffffffffffffffffffffffffffffffffff1673ffffffffffffffffffffffffffffffffffffffff1614610b2c576040517f08c379a0000000000000000000000000000000000000000000000000000000008152600401610b23906120e3565b60405180910390fd5b60008160080160006101000a81548160ff0219169083151502179055508060010160009054906101000a900473ffffffffffffffffffffffffffffffffffffffff1673ffffffffffffffffffffffffffffffffffffffff166342842e0e308360000160009054906101000a900473ffffffffffffffffffffffffffffffffffffffff1684600201546040518463ffffffff1660e01b8152600401610bd293929190612103565b600060405180830381600087803b158015610bec57600080fd5b505af1158015610c00573d6000803e3d6000fd5b50505050817f28601d865dccc9f113e15a7185c1b38c085d598c71250d3337916a428536d77160405160405180910390a25050565b600160009054906101000a900473ffffffffffffffffffffffffffffffffffffffff1681565b60006005600083815260200190815260200160002090508060080160009054906101000a900460ff16610cc3576040517f08c379a0000000000000000000000000000000000000000000000000000000008152600401610cba9061200b565b60405180910390fd5b8060070154421015610d0a576040517f08c379a0000000000000000000000000000000000000000000000000000000008152600401610d0190612186565b60405180910390fd5b60008160080160006101000a81548160ff021916908315150217905550600073ffffffffffffffffffffffffffffffffffffffff168160060160009054906101000a900473ffffffffffffffffffffffffffffffffffffffff1673ffffffffffffffffffffffffffffffffffffffff161461107657600060646002548360050154610d9591906121a6565b610d9f9190612217565b90506000818360050154610db39190612248565b9050600160009054906101000a900473ffffffffffffffffffffffffffffffffffffffff1673ffffffffffffffffffffffffffffffffffffffff1663a9059cbb8460000160009054906101000a900473ffffffffffffffffffffffffffffffffffffffff16836040518363ffffffff1660e01b8152600401610e36929190611f4e565b6020604051808303816000875af1158015610e55573d6000803e3d6000fd5b505050506040513d601f19601f82011682018060405250810190610e7991906122a8565b50600160009054906101000a900473ffffffffffffffffffffffffffffffffffffffff1673ffffffffffffffffffffffffffffffffffffffff1663a9059cbb600460009054906101000a900473ffffffffffffffffffffffffffffffffffffffff16846040518363ffffffff1660e01b8152600401610ef9929190611f4e565b6020604051808303816000875af1158015610f18573d6000803e3d6000fd5b505050506040513d601f19601f82011682018060405250810190610f3c91906122a8565b508260010160009054906101000a900473ffffffffffffffffffffffffffffffffffffffff1673ffffffffffffffffffffffffffffffffffffffff166342842e0e308560060160009054906101000a900473ffffffffffffffffffffffffffffffffffffffff1686600201546040518463ffffffff1660e01b8152600401610fc693929190612103565b600060405180830381600087803b158015610fe057600080fd5b505af1158015610ff4573d6000803e3d6000fd5b505050508260060160009054906101000a900473ffffffffffffffffffffffffffffffffffffffff1673ffffffffffffffffffffffffffffffffffffffff16847fd2aa34a4fdbbc6dff6a3e56f46e0f3ae2a31d7785ff3487aa5c95c642acea50185600501546040516110679190611b27565b60405180910390a3505061115f565b8060010160009054906101000a900473ffffffffffffffffffffffffffffffffffffffff1673ffffffffffffffffffffffffffffffffffffffff166342842e0e308360000160009054906101000a900473ffffffffffffffffffffffffffffffffffffffff1684600201546040518463ffffffff1660e01b81526004016110ff93929190612103565b600060405180830381600087803b15801561111957600080fd5b505af115801561112d573d6000803e3d6000fd5b50505050817f28601d865dccc9f113e15a7185c1b38c085d598c71250d3337916a428536d77160405160405180910390a25b5050565b61116b6115d0565b80600460006101000a81548173ffffffffffffffffffffffffffffffffffffffff021916908373ffffffffffffffffffffffffffffffffffffffff16021790555050565b6111b76115d0565b600073ffffffffffffffffffffffffffffffffffffffff168173ffffffffffffffffffffffffffffffffffffffff16036112295760006040517f1e4fbdf700000000000000000000000000000000000000000000000000000000815260040161122091906119a0565b60405180910390fd5b61123281611657565b50565b60035481565b600061124561171b565b905090565b60006005600085815260200190815260200160002090508060080160009054906101000a900460ff166112b2576040517f08c379a00000000000000000000000000000000000000000000000000000000081526004016112a99061200b565b60405180910390fd5b806007015442106112f8576040517f08c379a00000000000000000000000000000000000000000000000000000000081526004016112ef90612321565b60405180910390fd5b60008082600501541461131e57816004015482600501546113199190611f1a565b611324565b81600301545b905080841015611369576040517f08c379a00000000000000000000000000000000000000000000000000000000081526004016113609061238d565b60405180910390fd5b600160009054906101000a900473ffffffffffffffffffffffffffffffffffffffff1673ffffffffffffffffffffffffffffffffffffffff166323b872dd8430876040518463ffffffff1660e01b81526004016113c893929190612103565b6020604051808303816000875af11580156113e7573d6000803e3d6000fd5b505050506040513d601f19601f8201168201806040525081019061140b91906122a8565b50600073ffffffffffffffffffffffffffffffffffffffff168260060160009054906101000a900473ffffffffffffffffffffffffffffffffffffffff1673ffffffffffffffffffffffffffffffffffffffff161461152e57600160009054906101000a900473ffffffffffffffffffffffffffffffffffffffff1673ffffffffffffffffffffffffffffffffffffffff1663a9059cbb8360060160009054906101000a900473ffffffffffffffffffffffffffffffffffffffff1684600501546040518363ffffffff1660e01b81526004016114e9929190611f4e565b6020604051808303816000875af1158015611508573d6000803e3d6000fd5b505050506040513d601f19601f8201168201806040525081019061152c91906122a8565b505b838260050181905550828260060160006101000a81548173ffffffffffffffffffffffffffffffffffffffff021916908373ffffffffffffffffffffffffffffffffffffffff1602179055508273ffffffffffffffffffffffffffffffffffffffff16857f0e54eff26401bf69b81b26f60bd85ef47f5d85275c1d268d84f68d6897431c47866040516115c19190611b27565b60405180910390a35050505050565b6115d861123b565b73ffffffffffffffffffffffffffffffffffffffff166115f661053a565b73ffffffffffffffffffffffffffffffffffffffff16146116555761161961123b565b6040517f118cdaa700000000000000000000000000000000000000000000000000000000815260040161164c91906119a0565b60405180910390fd5b565b60008060009054906101000a900473ffffffffffffffffffffffffffffffffffffffff169050816000806101000a81548173ffffffffffffffffffffffffffffffffffffffff021916908373ffffffffffffffffffffffffffffffffffffffff1602179055508173ffffffffffffffffffffffffffffffffffffffff168173ffffffffffffffffffffffffffffffffffffffff167f8be0079c531659141344cd1fd0a4f28419497f9722a3daafe3b4186f6b6457e060405160405180910390a35050565b60008060003690509050600061172f611790565b905061173a33610447565b80156117465750808210155b1561178057600036828461175a9190612248565b908092611769939291906123b7565b906117749190612436565b60601c9250505061178d565b61178861179f565b925050505b90565b600061179a6117a7565b905090565b600033905090565b60006014905090565b600080fd5b600080fd5b600073ffffffffffffffffffffffffffffffffffffffff82169050919050565b60006117e5826117ba565b9050919050565b6117f5816117da565b811461180057600080fd5b50565b600081359050611812816117ec565b92915050565b6000819050919050565b61182b81611818565b811461183657600080fd5b50565b60008135905061184881611822565b92915050565b600080fd5b600080fd5b600080fd5b60008083601f8401126118735761187261184e565b5b8235905067ffffffffffffffff8111156118905761188f611853565b5b6020830191508360018202830111156118ac576118ab611858565b5b9250929050565b6000806000806000608086880312156118cf576118ce6117b0565b5b60006118dd88828901611803565b95505060206118ee88828901611803565b94505060406118ff88828901611839565b935050606086013567ffffffffffffffff8111156119205761191f6117b5565b5b61192c8882890161185d565b92509250509295509295909350565b60007fffffffff0000000000000000000000000000000000000000000000000000000082169050919050565b6119708161193b565b82525050565b600060208201905061198b6000830184611967565b92915050565b61199a816117da565b82525050565b60006020820190506119b56000830184611991565b92915050565b6000602082840312156119d1576119d06117b0565b5b60006119df84828501611839565b91505092915050565b6119f181611818565b82525050565b60008115159050919050565b611a0c816119f7565b82525050565b600061012082019050611a28600083018c611991565b611a35602083018b611991565b611a42604083018a6119e8565b611a4f60608301896119e8565b611a5c60808301886119e8565b611a6960a08301876119e8565b611a7660c0830186611991565b611a8360e08301856119e8565b611a91610100830184611a03565b9a9950505050505050505050565b600060208284031215611ab557611ab46117b0565b5b6000611ac384828501611803565b91505092915050565b6000602082019050611ae16000830184611a03565b92915050565b60008060408385031215611afe57611afd6117b0565b5b6000611b0c85828601611839565b9250506020611b1d85828601611839565b9150509250929050565b6000602082019050611b3c60008301846119e8565b92915050565b600060ff82169050919050565b611b5881611b42565b8114611b6357600080fd5b50565b600081359050611b7581611b4f565b92915050565b6000819050919050565b611b8e81611b7b565b8114611b9957600080fd5b50565b600081359050611bab81611b85565b92915050565b60008060008060008060c08789031215611bce57611bcd6117b0565b5b6000611bdc89828a01611839565b9650506020611bed89828a01611839565b9550506040611bfe89828a01611839565b9450506060611c0f89828a01611b66565b9350506080611c2089828a01611b9c565b92505060a0611c3189828a01611b9c565b9150509295509295509295565b600080600080600060a08688031215611c5a57611c596117b0565b5b6000611c6888828901611803565b9550506020611c7988828901611839565b9450506040611c8a88828901611839565b9350506060611c9b88828901611839565b9250506080611cac88828901611839565b9150509295509295909350565b6000819050919050565b6000611cde611cd9611cd4846117ba565b611cb9565b6117ba565b9050919050565b6000611cf082611cc3565b9050919050565b6000611d0282611ce5565b9050919050565b611d1281611cf7565b82525050565b6000602082019050611d2d6000830184611d09565b92915050565b600082825260208201905092915050565b7f4d61782032302500000000000000000000000000000000000000000000000000600082015250565b6000611d7a600783611d33565b9150611d8582611d44565b602082019050919050565b60006020820190508181036000830152611da981611d6d565b9050919050565b611db981611b42565b82525050565b611dc881611b7b565b82525050565b600060e082019050611de3600083018a611991565b611df06020830189611991565b611dfd60408301886119e8565b611e0a60608301876119e8565b611e176080830186611db0565b611e2460a0830185611dbf565b611e3160c0830184611dbf565b98975050505050505050565b600081519050611e4c816117ec565b92915050565b600060208284031215611e6857611e676117b0565b5b6000611e7684828501611e3d565b91505092915050565b7f4e4654206e6f7420657363726f77656400000000000000000000000000000000600082015250565b6000611eb5601083611d33565b9150611ec082611e7f565b602082019050919050565b60006020820190508181036000830152611ee481611ea8565b9050919050565b7f4e487b7100000000000000000000000000000000000000000000000000000000600052601160045260246000fd5b6000611f2582611818565b9150611f3083611818565b9250828201905080821115611f4857611f47611eeb565b5b92915050565b6000604082019050611f636000830185611991565b611f7060208301846119e8565b9392505050565b6000611f8282611818565b91507fffffffffffffffffffffffffffffffffffffffffffffffffffffffffffffffff8203611fb457611fb3611eeb565b5b600182019050919050565b7f41756374696f6e20696e61637469766500000000000000000000000000000000600082015250565b6000611ff5601083611d33565b915061200082611fbf565b602082019050919050565b6000602082019050818103600083015261202481611fe8565b9050919050565b7f4e6f7420617574686f72697a6564000000000000000000000000000000000000600082015250565b6000612061600e83611d33565b915061206c8261202b565b602082019050919050565b6000602082019050818103600083015261209081612054565b9050919050565b7f43616e6e6f74206361616e63656c206166746572206269647300000000000000600082015250565b60006120cd601983611d33565b91506120d882612097565b602082019050919050565b600060208201905081810360008301526120fc816120c0565b9050919050565b60006060820190506121186000830186611991565b6121256020830185611991565b61213260408301846119e8565b949350505050565b7f41756374696f6e206f6e676f696e670000000000000000000000000000000000600082015250565b6000612170600f83611d33565b915061217b8261213a565b602082019050919050565b6000602082019050818103600083015261219f81612163565b9050919050565b60006121b182611818565b91506121bc83611818565b92508282026121ca81611818565b915082820484148315176121e1576121e0611eeb565b5b5092915050565b7f4e487b7100000000000000000000000000000000000000000000000000000000600052601260045260246000fd5b600061222282611818565b915061222d83611818565b92508261223d5761223c6121e8565b5b828204905092915050565b600061225382611818565b915061225e83611818565b925082820390508181111561227657612275611eeb565b5b92915050565b612285816119f7565b811461229057600080fd5b50565b6000815190506122a28161227c565b92915050565b6000602082840312156122be576122bd6117b0565b5b60006122cc84828501612293565b91505092915050565b7f41756374696f6e20656e64656400000000000000000000000000000000000000600082015250565b600061230b600d83611d33565b9150612316826122d5565b602082019050919050565b6000602082019050818103600083015261233a816122fe565b9050919050565b7f42696420746f6f206c6f77000000000000000000000000000000000000000000600082015250565b6000612377600b83611d33565b915061238282612341565b602082019050919050565b600060208201905081810360008301526123a68161236a565b9050919050565b600080fd5b600080fd5b600080858511156123cb576123ca6123ad565b5b838611156123dc576123db6123b2565b5b6001850283019150848603905094509492505050565b600082905092915050565b60007fffffffffffffffffffffffffffffffffffffffff00000000000000000000000082169050919050565b600082821b905092915050565b600061244283836123f2565b8261244d81356123fd565b9250601482101561248d576124887fffffffffffffffffffffffffffffffffffffffff00000000000000000000000083601403600802612429565b831692505b50509291505056fea2646970667358221220e01a718b8dc9b2b5996f06c7dbf718b26ad565b9c6822587a908d4b19d558acb64736f6c634300081c0033",
  "linkReferences": {},
  "deployedLinkReferences": {}
}