{
  "_format": "hh-sol-artifact-1",
  "contractName": "PredictionBetting",
  "sourceName": "contracts/PredictonBetting.sol",
  "abi": [
    {
      "inputs": [
        {
          "internalType": "address",
          "name": "_engageToken",
          "type": "address"
        },
        {
          "internalType": "address",
          "name": "_auctionToken",
          "type": "address"
        },
        {
          "internalType": "address",
          "name": "_auctionManager",
          "type": "address"
        },
        {
          "internalType": "address",
          "name": "_customVRF",
          "type": "address"
        },
        {
          "internalType": "address",
          "name": "_trustedForwarder",
          "type": "address"
        }
      ],
      "stateMutability": "nonpayable",
      "type": "constructor"
    },
    {
      "inputs": [
        {
          "internalType": "address",
          "name": "owner",
          "type": "address"
        }
      ],
      "name": "OwnableInvalidOwner",
      "type": "error"
    },
    {
      "inputs": [
        {
          "internalType": "address",
          "name": "account",
          "type": "address"
        }
      ],
      "name": "OwnableUnauthorizedAccount",
      "type": "error"
    },
    {
      "anonymous": false,
      "inputs": [
        {
          "indexed": true,
          "internalType": "address",
          "name": "previousOwner",
          "type": "address"
        },
        {
          "indexed": true,
          "internalType": "address",
          "name": "newOwner",
          "type": "address"
        }
      ],
      "name": "OwnershipTransferred",
      "type": "event"
    },
    {
      "inputs": [
        {
          "internalType": "uint256",
          "name": "",
          "type": "uint256"
        },
        {
          "internalType": "uint256",
          "name": "",
          "type": "uint256"
        }
      ],
      "name": "auctionBets",
      "outputs": [
        {
          "internalType": "address",
          "name": "bettor",
          "type": "address"
        },
        {
          "internalType": "uint256",
          "name": "predictedPrice",
          "type": "uint256"
        },
        {
          "internalType": "enum PredictionBetting.Tier",
          "name": "tier",
          "type": "uint8"
        }
      ],
      "stateMutability": "view",
      "type": "function"
    },
    {
      "inputs": [],
      "name": "auctionManager",
      "outputs": [
        {
          "internalType": "contract IAuctionManager",
          "name": "",
          "type": "address"
        }
      ],
      "stateMutability": "view",
      "type": "function"
    },
    {
      "inputs": [],
      "name": "auctionToken",
      "outputs": [
        {
          "internalType": "contract IERC20",
          "name": "",
          "type": "address"
        }
      ],
      "stateMutability": "view",
      "type": "function"
    },
    {
      "inputs": [
        {
          "internalType": "uint256",
          "name": "",
          "type": "uint256"
        }
      ],
      "name": "currentBettableAuctions",
      "outputs": [
        {
          "internalType": "uint256",
          "name": "",
          "type": "uint256"
        }
      ],
      "stateMutability": "view",
      "type": "function"
    },
    {
      "inputs": [],
      "name": "customVRF",
      "outputs": [
        {
          "internalType": "contract ICustomVRF",
          "name": "",
          "type": "address"
        }
      ],
      "stateMutability": "view",
      "type": "function"
    },
    {
      "inputs": [],
      "name": "engageToken",
      "outputs": [
        {
          "internalType": "contract IERC20",
          "name": "",
          "type": "address"
        }
      ],
      "stateMutability": "view",
      "type": "function"
    },
    {
      "inputs": [
        {
          "internalType": "uint256",
          "name": "",
          "type": "uint256"
        },
        {
          "internalType": "address",
          "name": "",
          "type": "address"
        }
      ],
      "name": "hasBet",
      "outputs": [
        {
          "internalType": "bool",
          "name": "",
          "type": "bool"
        }
      ],
      "stateMutability": "view",
      "type": "function"
    },
    {
      "inputs": [
        {
          "internalType": "uint256",
          "name": "",
          "type": "uint256"
        }
      ],
      "name": "isBettableAuction",
      "outputs": [
        {
          "internalType": "bool",
          "name": "",
          "type": "bool"
        }
      ],
      "stateMutability": "view",
      "type": "function"
    },
    {
      "inputs": [
        {
          "internalType": "address",
          "name": "forwarder",
          "type": "address"
        }
      ],
      "name": "isTrustedForwarder",
      "outputs": [
        {
          "internalType": "bool",
          "name": "",
          "type": "bool"
        }
      ],
      "stateMutability": "view",
      "type": "function"
    },
    {
      "inputs": [],
      "name": "owner",
      "outputs": [
        {
          "internalType": "address",
          "name": "",
          "type": "address"
        }
      ],
      "stateMutability": "view",
      "type": "function"
    },
    {
      "inputs": [
        {
          "internalType": "uint256",
          "name": "auctionId",
          "type": "uint256"
        },
        {
          "internalType": "uint256",
          "name": "predictedPrice",
          "type": "uint256"
        },
        {
          "internalType": "enum PredictionBetting.Tier",
          "name": "tier",
          "type": "uint8"
        }
      ],
      "name": "placeBet",
      "outputs": [],
      "stateMutability": "nonpayable",
      "type": "function"
    },
    {
      "inputs": [
        {
          "internalType": "uint256",
          "name": "requestId",
          "type": "uint256"
        },
        {
          "internalType": "address",
          "name": "recipient",
          "type": "address"
        },
        {
          "internalType": "uint256",
          "name": "reward",
          "type": "uint256"
        }
      ],
      "name": "receiveReward",
      "outputs": [],
      "stateMutability": "nonpayable",
      "type": "function"
    },
    {
      "inputs": [
        {
          "internalType": "uint256[]",
          "name": "auctionIds",
          "type": "uint256[]"
        }
      ],
      "name": "registerBettableAuctions",
      "outputs": [],
      "stateMutability": "nonpayable",
      "type": "function"
    },
    {
      "inputs": [],
      "name": "renounceOwnership",
      "outputs": [],
      "stateMutability": "nonpayable",
      "type": "function"
    },
    {
      "inputs": [
        {
          "internalType": "uint256",
          "name": "auctionId",
          "type": "uint256"
        }
      ],
      "name": "resolveWinners",
      "outputs": [],
      "stateMutability": "nonpayable",
      "type": "function"
    },
    {
      "inputs": [
        {
          "internalType": "uint256",
          "name": "",
          "type": "uint256"
        },
        {
          "internalType": "address",
          "name": "",
          "type": "address"
        }
      ],
      "name": "rewardClaimed",
      "outputs": [
        {
          "internalType": "bool",
          "name": "",
          "type": "bool"
        }
      ],
      "stateMutability": "view",
      "type": "function"
    },
    {
      "inputs": [
        {
          "internalType": "uint256",
          "name": "",
          "type": "uint256"
        }
      ],
      "name": "rewardRequestInfo",
      "outputs": [
        {
          "internalType": "uint256",
          "name": "auctionId",
          "type": "uint256"
        },
        {
          "internalType": "address",
          "name": "recipient",
          "type": "address"
        },
        {
          "internalType": "enum PredictionBetting.Tier",
          "name": "tier",
          "type": "uint8"
        }
      ],
      "stateMutability": "view",
      "type": "function"
    },
    {
      "inputs": [
        {
          "internalType": "address",
          "name": "newOwner",
          "type": "address"
        }
      ],
      "name": "transferOwnership",
      "outputs": [],
      "stateMutability": "nonpayable",
      "type": "function"
    },
    {
      "inputs": [],
      "name": "trustedForwarder",
      "outputs": [
        {
          "internalType": "address",
          "name": "",
          "type": "address"
        }
      ],
      "stateMutability": "view",
      "type": "function"
    },
    {
      "inputs": [
        {
          "internalType": "uint256",
          "name": "",
          "type": "uint256"
        }
      ],
      "name": "winnerTier",
      "outputs": [
        {
          "internalType": "enum PredictionBetting.Tier",
          "name": "",
          "type": "uint8"
        }
      ],
      "stateMutability": "view",
      "type": "function"
    },
    {
      "inputs": [
        {
          "internalType": "uint256",
          "name": "",
          "type": "uint256"
        },
        {
          "internalType": "uint256",
          "name": "",
          "type": "uint256"
        }
      ],
      "name": "winners",
      "outputs": [
        {
          "internalType": "address",
          "name": "",
          "type": "address"
        }
      ],
      "stateMutability": "view",
      "type": "function"
    }
  ],
  "bytecode": "0x60a060405234801561001057600080fd5b50604051612e98380380612e988339818101604052810190610032919061043e565b61004061020660201b60201c565b818073ffffffffffffffffffffffffffffffffffffffff1660808173ffffffffffffffffffffffffffffffffffffffff168152505050600073ffffffffffffffffffffffffffffffffffffffff168173ffffffffffffffffffffffffffffffffffffffff16036100e85760006040517f1e4fbdf70000000000000000000000000000000000000000000000000000000081526004016100df91906104c8565b60405180910390fd5b6100f78161021b60201b60201c565b5084600160006101000a81548173ffffffffffffffffffffffffffffffffffffffff021916908373ffffffffffffffffffffffffffffffffffffffff16021790555083600260006101000a81548173ffffffffffffffffffffffffffffffffffffffff021916908373ffffffffffffffffffffffffffffffffffffffff16021790555082600360006101000a81548173ffffffffffffffffffffffffffffffffffffffff021916908373ffffffffffffffffffffffffffffffffffffffff16021790555081600460006101000a81548173ffffffffffffffffffffffffffffffffffffffff021916908373ffffffffffffffffffffffffffffffffffffffff1602179055505050505050610638565b60006102166102df60201b60201c565b905090565b60008060009054906101000a900473ffffffffffffffffffffffffffffffffffffffff169050816000806101000a81548173ffffffffffffffffffffffffffffffffffffffff021916908373ffffffffffffffffffffffffffffffffffffffff1602179055508173ffffffffffffffffffffffffffffffffffffffff168173ffffffffffffffffffffffffffffffffffffffff167f8be0079c531659141344cd1fd0a4f28419497f9722a3daafe3b4186f6b6457e060405160405180910390a35050565b6000806000369050905060006102f961036660201b60201c565b905061030a3361037b60201b60201c565b80156103165750808210155b1561035057600036828461032a919061051c565b9080926103399392919061055a565b9061034491906105d9565b60601c92505050610363565b61035e6103c060201b60201c565b925050505b90565b60006103766103c860201b60201c565b905090565b600061038b6103d160201b60201c565b73ffffffffffffffffffffffffffffffffffffffff168273ffffffffffffffffffffffffffffffffffffffff16149050919050565b600033905090565b60006014905090565b6000608051905090565b600080fd5b600073ffffffffffffffffffffffffffffffffffffffff82169050919050565b600061040b826103e0565b9050919050565b61041b81610400565b811461042657600080fd5b50565b60008151905061043881610412565b92915050565b600080600080600060a0868803121561045a576104596103db565b5b600061046888828901610429565b955050602061047988828901610429565b945050604061048a88828901610429565b935050606061049b88828901610429565b92505060806104ac88828901610429565b9150509295509295909350565b6104c281610400565b82525050565b60006020820190506104dd60008301846104b9565b92915050565b6000819050919050565b7f4e487b7100000000000000000000000000000000000000000000000000000000600052601160045260246000fd5b6000610527826104e3565b9150610532836104e3565b925082820390508181111561054a576105496104ed565b5b92915050565b600080fd5b600080fd5b6000808585111561056e5761056d610550565b5b8386111561057f5761057e610555565b5b6001850283019150848603905094509492505050565b600082905092915050565b60007fffffffffffffffffffffffffffffffffffffffff00000000000000000000000082169050919050565b600082821b905092915050565b60006105e58383610595565b826105f081356105a0565b925060148210156106305761062b7fffffffffffffffffffffffffffffffffffffffff000000000000000000000000836014036008026105cc565b831692505b505092915050565b6080516128456106536000396000610a6c01526128456000f3fe608060405234801561001057600080fd5b50600436106101375760003560e01c80637da0a877116100b8578063a8adb9e91161007c578063a8adb9e914610350578063ae062acd14610382578063b0192f9a146103b2578063ddd0a0ce146103d0578063f2fde38b146103ee578063fcb26abe1461040a57610137565b80637da0a877146102be5780638da5cb5b146102dc57806397f70da1146102fa57806399fdb320146103165780639e14427e1461033457610137565b8063557c6fdc116100ff578063557c6fdc14610218578063572b6c051461024a578063615ea6d41461027a578063715018a61461029657806378670b4d146102a057610137565b80630a30c89c1461013c5780630efc88651461016c5780630ffdb6241461019c57806310b11c11146101cc57806353fb6c5c146101e8575b600080fd5b61015660048036038101906101519190611ac8565b61043a565b6040516101639190611b6c565b60405180910390f35b61018660048036038101906101819190611b87565b61045a565b6040516101939190611c08565b60405180910390f35b6101b660048036038101906101b19190611ac8565b6104a8565b6040516101c39190611c3e565b60405180910390f35b6101e660048036038101906101e19190611cbe565b6104c8565b005b61020260048036038101906101fd9190611d37565b6105ed565b60405161020f9190611c3e565b60405180910390f35b610232600480360381019061022d9190611ac8565b61061c565b60405161024193929190611d86565b60405180910390f35b610264600480360381019061025f9190611dbd565b610673565b6040516102719190611c3e565b60405180910390f35b610294600480360381019061028f9190611dea565b6106b2565b005b61029e610a2e565b005b6102a8610a42565b6040516102b59190611e9c565b60405180910390f35b6102c6610a68565b6040516102d39190611c08565b60405180910390f35b6102e4610a90565b6040516102f19190611c08565b60405180910390f35b610314600480360381019061030f9190611ac8565b610ab9565b005b61031e6110af565b60405161032b9190611e9c565b60405180910390f35b61034e60048036038101906103499190611edc565b6110d5565b005b61036a60048036038101906103659190611b87565b611693565b60405161037993929190611f2f565b60405180910390f35b61039c60048036038101906103979190611d37565b611707565b6040516103a99190611c3e565b60405180910390f35b6103ba611736565b6040516103c79190611f87565b60405180910390f35b6103d861175c565b6040516103e59190611fc3565b60405180910390f35b61040860048036038101906104039190611dbd565b611782565b005b610424600480360381019061041f9190611ac8565b611808565b6040516104319190611fde565b60405180910390f35b60086020528060005260406000206000915054906101000a900460ff1681565b6007602052816000526040600020818154811061047657600080fd5b906000526020600020016000915091509054906101000a900473ffffffffffffffffffffffffffffffffffffffff1681565b600c6020528060005260406000206000915054906101000a900460ff1681565b6104d061182c565b60005b600b80549050811015610537576000600c6000600b84815481106104fa576104f9611ff9565b5b9060005260206000200154815260200190815260200160002060006101000a81548160ff02191690831515021790555080806001019150506104d3565b50600b60006105469190611a4a565b60005b828290508110156105e8576001600c600085858581811061056d5761056c611ff9565b5b90506020020135815260200190815260200160002060006101000a81548160ff021916908315150217905550600b8383838181106105ae576105ad611ff9565b5b9050602002013590806001815401808255809150506001900390600052602060002001600090919091909150558080600101915050610549565b505050565b600a6020528160005260406000206020528060005260406000206000915091509054906101000a900460ff1681565b60096020528060005260406000206000915090508060000154908060010160009054906101000a900473ffffffffffffffffffffffffffffffffffffffff16908060010160149054906101000a900460ff16905083565b600061067d610a68565b73ffffffffffffffffffffffffffffffffffffffff168273ffffffffffffffffffffffffffffffffffffffff16149050919050565b600460009054906101000a900473ffffffffffffffffffffffffffffffffffffffff1673ffffffffffffffffffffffffffffffffffffffff166106f36118b3565b73ffffffffffffffffffffffffffffffffffffffff1614610749576040517f08c379a000000000000000000000000000000000000000000000000000000000815260040161074090612085565b60405180910390fd5b600060096000858152602001908152602001600020604051806060016040529081600082015481526020016001820160009054906101000a900473ffffffffffffffffffffffffffffffffffffffff1673ffffffffffffffffffffffffffffffffffffffff1673ffffffffffffffffffffffffffffffffffffffff1681526020016001820160149054906101000a900460ff1660038111156107ee576107ed611af5565b5b6003811115610800576107ff611af5565b5b8152505090508273ffffffffffffffffffffffffffffffffffffffff16816020015173ffffffffffffffffffffffffffffffffffffffff1614610878576040517f08c379a000000000000000000000000000000000000000000000000000000000815260040161086f906120f1565b60405180910390fd5b600a60008260000151815260200190815260200160002060008473ffffffffffffffffffffffffffffffffffffffff1673ffffffffffffffffffffffffffffffffffffffff16815260200190815260200160002060009054906101000a900460ff161561091a576040517f08c379a00000000000000000000000000000000000000000000000000000000081526004016109119061215d565b60405180910390fd5b6001600a60008360000151815260200190815260200160002060008573ffffffffffffffffffffffffffffffffffffffff1673ffffffffffffffffffffffffffffffffffffffff16815260200190815260200160002060006101000a81548160ff021916908315150217905550600260009054906101000a900473ffffffffffffffffffffffffffffffffffffffff1673ffffffffffffffffffffffffffffffffffffffff1663a9059cbb84846040518363ffffffff1660e01b81526004016109e492919061217d565b6020604051808303816000875af1158015610a03573d6000803e3d6000fd5b505050506040513d601f19601f82011682018060405250810190610a2791906121d2565b5050505050565b610a3661182c565b610a4060006118c2565b565b600160009054906101000a900473ffffffffffffffffffffffffffffffffffffffff1681565b60007f0000000000000000000000000000000000000000000000000000000000000000905090565b60008060009054906101000a900473ffffffffffffffffffffffffffffffffffffffff16905090565b610ac161182c565b6000600760008381526020019081526020016000208054905014610b1a576040517f08c379a0000000000000000000000000000000000000000000000000000000008152600401610b119061224b565b60405180910390fd5b60006005600083815260200190815260200160002090506000818054905011610b78576040517f08c379a0000000000000000000000000000000000000000000000000000000008152600401610b6f906122b7565b60405180910390fd5b6000600360009054906101000a900473ffffffffffffffffffffffffffffffffffffffff1673ffffffffffffffffffffffffffffffffffffffff1663571a26a0846040518263ffffffff1660e01b8152600401610bd59190611fde565b61012060405180830381865afa158015610bf3573d6000803e3d6000fd5b505050506040513d601f19601f82011682018060405250810190610c179190612301565b5050509550505050505060007fffffffffffffffffffffffffffffffffffffffffffffffffffffffffffffffff905060005b8380549050811015610ca1576000610c85858381548110610c6d57610c6c611ff9565b5b90600052602060002090600302016001015485611986565b905082811015610c93578092505b508080600101915050610c49565b50600080600090505b8480549050811015610dea576000610ce6868381548110610cce57610ccd611ff9565b5b90600052602060002090600302016001015486611986565b9050838103610ddc5760076000888152602001908152602001600020868381548110610d1557610d14611ff9565b5b906000526020600020906003020160000160009054906101000a900473ffffffffffffffffffffffffffffffffffffffff169080600181540180825580915050600190039060005260206000200160009091909190916101000a81548173ffffffffffffffffffffffffffffffffffffffff021916908373ffffffffffffffffffffffffffffffffffffffff160217905550858281548110610dba57610db9611ff9565b5b906000526020600020906003020160020160009054906101000a900460ff1692505b508080600101915050610caa565b50806008600087815260200190815260200160002060006101000a81548160ff02191690836003811115610e2157610e20611af5565b5b021790555060005b60076000878152602001908152602001600020805490508110156110a7576000600760008881526020019081526020016000208281548110610e6e57610e6d611ff9565b5b9060005260206000200160009054906101000a900473ffffffffffffffffffffffffffffffffffffffff169050600060019050600060016003811115610eb757610eb6611af5565b5b856003811115610eca57610ec9611af5565b5b14610f0b5760026003811115610ee357610ee2611af5565b5b856003811115610ef657610ef5611af5565b5b14610f03576103e8610f06565b60645b610f0e565b600a5b61ffff1690506000600460009054906101000a900473ffffffffffffffffffffffffffffffffffffffff1673ffffffffffffffffffffffffffffffffffffffff1663ac18e9f9308686866040518563ffffffff1660e01b8152600401610f7794939291906123cb565b6020604051808303816000875af1158015610f96573d6000803e3d6000fd5b505050506040513d601f19601f82011682018060405250810190610fba9190612410565b905060405180606001604052808b81526020018573ffffffffffffffffffffffffffffffffffffffff168152602001876003811115610ffc57610ffb611af5565b5b815250600960008381526020019081526020016000206000820151816000015560208201518160010160006101000a81548173ffffffffffffffffffffffffffffffffffffffff021916908373ffffffffffffffffffffffffffffffffffffffff16021790555060408201518160010160146101000a81548160ff0219169083600381111561108e5761108d611af5565b5b0217905550905050505050508080600101915050610e29565b505050505050565b600260009054906101000a900473ffffffffffffffffffffffffffffffffffffffff1681565b600c600084815260200190815260200160002060009054906101000a900460ff16611135576040517f08c379a000000000000000000000000000000000000000000000000000000000815260040161112c90612489565b60405180910390fd5b6001600381111561114957611148611af5565b5b81600381111561115c5761115b611af5565b5b148061118c57506002600381111561117757611176611af5565b5b81600381111561118a57611189611af5565b5b145b806111ba57506003808111156111a5576111a4611af5565b5b8160038111156111b8576111b7611af5565b5b145b6111f9576040517f08c379a00000000000000000000000000000000000000000000000000000000081526004016111f0906124f5565b60405180910390fd5b6006600084815260200190815260200160002060006112166118b3565b73ffffffffffffffffffffffffffffffffffffffff1673ffffffffffffffffffffffffffffffffffffffff16815260200190815260200160002060009054906101000a900460ff161561129e576040517f08c379a000000000000000000000000000000000000000000000000000000000815260040161129590612561565b60405180910390fd5b600080600360009054906101000a900473ffffffffffffffffffffffffffffffffffffffff1673ffffffffffffffffffffffffffffffffffffffff1663571a26a0866040518263ffffffff1660e01b81526004016112fc9190611fde565b61012060405180830381865afa15801561131a573d6000803e3d6000fd5b505050506040513d601f19601f8201168201806040525081019061133e9190612301565b985098505050505050505080611389576040517f08c379a0000000000000000000000000000000000000000000000000000000008152600401611380906125cd565b60405180910390fd5b81612a3042611398919061261c565b106113d8576040517f08c379a00000000000000000000000000000000000000000000000000000000081526004016113cf9061269c565b60405180910390fd5b6000600160038111156113ee576113ed611af5565b5b84600381111561140157611400611af5565b5b14611451576002600381111561141a57611419611af5565b5b84600381111561142d5761142c611af5565b5b146114415768056bc75e2d6310000061144c565b6802b5e3af16b18800005b61145b565b678ac7230489e800005b68ffffffffffffffffff169050600160009054906101000a900473ffffffffffffffffffffffffffffffffffffffff1673ffffffffffffffffffffffffffffffffffffffff166323b872dd6114ae6118b3565b30846040518463ffffffff1660e01b81526004016114ce939291906126bc565b6020604051808303816000875af11580156114ed573d6000803e3d6000fd5b505050506040513d601f19601f8201168201806040525081019061151191906121d2565b506005600087815260200190815260200160002060405180606001604052806115386118b3565b73ffffffffffffffffffffffffffffffffffffffff16815260200187815260200186600381111561156c5761156b611af5565b5b815250908060018154018082558091505060019003906000526020600020906003020160009091909190915060008201518160000160006101000a81548173ffffffffffffffffffffffffffffffffffffffff021916908373ffffffffffffffffffffffffffffffffffffffff1602179055506020820151816001015560408201518160020160006101000a81548160ff0219169083600381111561161457611613611af5565b5b02179055505050600160066000888152602001908152602001600020600061163a6118b3565b73ffffffffffffffffffffffffffffffffffffffff1673ffffffffffffffffffffffffffffffffffffffff16815260200190815260200160002060006101000a81548160ff021916908315150217905550505050505050565b600560205281600052604060002081815481106116af57600080fd5b9060005260206000209060030201600091509150508060000160009054906101000a900473ffffffffffffffffffffffffffffffffffffffff16908060010154908060020160009054906101000a900460ff16905083565b60066020528160005260406000206020528060005260406000206000915091509054906101000a900460ff1681565b600360009054906101000a900473ffffffffffffffffffffffffffffffffffffffff1681565b600460009054906101000a900473ffffffffffffffffffffffffffffffffffffffff1681565b61178a61182c565b600073ffffffffffffffffffffffffffffffffffffffff168173ffffffffffffffffffffffffffffffffffffffff16036117fc5760006040517f1e4fbdf70000000000000000000000000000000000000000000000000000000081526004016117f39190611c08565b60405180910390fd5b611805816118c2565b50565b600b818154811061181857600080fd5b906000526020600020016000915090505481565b6118346118b3565b73ffffffffffffffffffffffffffffffffffffffff16611852610a90565b73ffffffffffffffffffffffffffffffffffffffff16146118b1576118756118b3565b6040517f118cdaa70000000000000000000000000000000000000000000000000000000081526004016118a89190611c08565b60405180910390fd5b565b60006118bd6119b5565b905090565b60008060009054906101000a900473ffffffffffffffffffffffffffffffffffffffff169050816000806101000a81548173ffffffffffffffffffffffffffffffffffffffff021916908373ffffffffffffffffffffffffffffffffffffffff1602179055508173ffffffffffffffffffffffffffffffffffffffff168173ffffffffffffffffffffffffffffffffffffffff167f8be0079c531659141344cd1fd0a4f28419497f9722a3daafe3b4186f6b6457e060405160405180910390a35050565b60008183116119a057828261199b91906126f3565b6119ad565b81836119ac91906126f3565b5b905092915050565b6000806000369050905060006119c9611a2a565b90506119d433610673565b80156119e05750808210155b15611a1a5760003682846119f491906126f3565b908092611a0393929190612731565b90611a0e91906127b0565b60601c92505050611a27565b611a22611a39565b925050505b90565b6000611a34611a41565b905090565b600033905090565b60006014905090565b5080546000825590600052602060002090810190611a689190611a6b565b50565b5b80821115611a84576000816000905550600101611a6c565b5090565b600080fd5b600080fd5b6000819050919050565b611aa581611a92565b8114611ab057600080fd5b50565b600081359050611ac281611a9c565b92915050565b600060208284031215611ade57611add611a88565b5b6000611aec84828501611ab3565b91505092915050565b7f4e487b7100000000000000000000000000000000000000000000000000000000600052602160045260246000fd5b60048110611b3557611b34611af5565b5b50565b6000819050611b4682611b24565b919050565b6000611b5682611b38565b9050919050565b611b6681611b4b565b82525050565b6000602082019050611b816000830184611b5d565b92915050565b60008060408385031215611b9e57611b9d611a88565b5b6000611bac85828601611ab3565b9250506020611bbd85828601611ab3565b9150509250929050565b600073ffffffffffffffffffffffffffffffffffffffff82169050919050565b6000611bf282611bc7565b9050919050565b611c0281611be7565b82525050565b6000602082019050611c1d6000830184611bf9565b92915050565b60008115159050919050565b611c3881611c23565b82525050565b6000602082019050611c536000830184611c2f565b92915050565b600080fd5b600080fd5b600080fd5b60008083601f840112611c7e57611c7d611c59565b5b8235905067ffffffffffffffff811115611c9b57611c9a611c5e565b5b602083019150836020820283011115611cb757611cb6611c63565b5b9250929050565b60008060208385031215611cd557611cd4611a88565b5b600083013567ffffffffffffffff811115611cf357611cf2611a8d565b5b611cff85828601611c68565b92509250509250929050565b611d1481611be7565b8114611d1f57600080fd5b50565b600081359050611d3181611d0b565b92915050565b60008060408385031215611d4e57611d4d611a88565b5b6000611d5c85828601611ab3565b9250506020611d6d85828601611d22565b9150509250929050565b611d8081611a92565b82525050565b6000606082019050611d9b6000830186611d77565b611da86020830185611bf9565b611db56040830184611b5d565b949350505050565b600060208284031215611dd357611dd2611a88565b5b6000611de184828501611d22565b91505092915050565b600080600060608486031215611e0357611e02611a88565b5b6000611e1186828701611ab3565b9350506020611e2286828701611d22565b9250506040611e3386828701611ab3565b9150509250925092565b6000819050919050565b6000611e62611e5d611e5884611bc7565b611e3d565b611bc7565b9050919050565b6000611e7482611e47565b9050919050565b6000611e8682611e69565b9050919050565b611e9681611e7b565b82525050565b6000602082019050611eb16000830184611e8d565b92915050565b60048110611ec457600080fd5b50565b600081359050611ed681611eb7565b92915050565b600080600060608486031215611ef557611ef4611a88565b5b6000611f0386828701611ab3565b9350506020611f1486828701611ab3565b9250506040611f2586828701611ec7565b9150509250925092565b6000606082019050611f446000830186611bf9565b611f516020830185611d77565b611f5e6040830184611b5d565b949350505050565b6000611f7182611e69565b9050919050565b611f8181611f66565b82525050565b6000602082019050611f9c6000830184611f78565b92915050565b6000611fad82611e69565b9050919050565b611fbd81611fa2565b82525050565b6000602082019050611fd86000830184611fb4565b92915050565b6000602082019050611ff36000830184611d77565b92915050565b7f4e487b7100000000000000000000000000000000000000000000000000000000600052603260045260246000fd5b600082825260208201905092915050565b7f4f6e6c7920565246000000000000000000000000000000000000000000000000600082015250565b600061206f600883612028565b915061207a82612039565b602082019050919050565b6000602082019050818103600083015261209e81612062565b9050919050565b7f496e76616c696420726563697069656e74000000000000000000000000000000600082015250565b60006120db601183612028565b91506120e6826120a5565b602082019050919050565b6000602082019050818103600083015261210a816120ce565b9050919050565b7f416c726561647920726577617264656400000000000000000000000000000000600082015250565b6000612147601083612028565b915061215282612111565b602082019050919050565b600060208201905081810360008301526121768161213a565b9050919050565b60006040820190506121926000830185611bf9565b61219f6020830184611d77565b9392505050565b6121af81611c23565b81146121ba57600080fd5b50565b6000815190506121cc816121a6565b92915050565b6000602082840312156121e8576121e7611a88565b5b60006121f6848285016121bd565b91505092915050565b7f416c7265616479207265736f6c76656400000000000000000000000000000000600082015250565b6000612235601083612028565b9150612240826121ff565b602082019050919050565b6000602082019050818103600083015261226481612228565b9050919050565b7f4e6f206265747300000000000000000000000000000000000000000000000000600082015250565b60006122a1600783612028565b91506122ac8261226b565b602082019050919050565b600060208201905081810360008301526122d081612294565b9050919050565b6000815190506122e681611d0b565b92915050565b6000815190506122fb81611a9c565b92915050565b60008060008060008060008060006101208a8c03121561232457612323611a88565b5b60006123328c828d016122d7565b99505060206123438c828d016122d7565b98505060406123548c828d016122ec565b97505060606123658c828d016122ec565b96505060806123768c828d016122ec565b95505060a06123878c828d016122ec565b94505060c06123988c828d016122d7565b93505060e06123a98c828d016122ec565b9250506101006123bb8c828d016121bd565b9150509295985092959850929598565b60006080820190506123e06000830187611bf9565b6123ed6020830186611bf9565b6123fa6040830185611d77565b6124076060830184611d77565b95945050505050565b60006020828403121561242657612425611a88565b5b6000612434848285016122ec565b91505092915050565b7f4e6f74207265676973746572656420666f722062657474696e67000000000000600082015250565b6000612473601a83612028565b915061247e8261243d565b602082019050919050565b600060208201905081810360008301526124a281612466565b9050919050565b7f496e76616c696420746965720000000000000000000000000000000000000000600082015250565b60006124df600c83612028565b91506124ea826124a9565b602082019050919050565b6000602082019050818103600083015261250e816124d2565b9050919050565b7f416c726561647920626574000000000000000000000000000000000000000000600082015250565b600061254b600b83612028565b915061255682612515565b602082019050919050565b6000602082019050818103600083015261257a8161253e565b9050919050565b7f41756374696f6e20696e61637469766500000000000000000000000000000000600082015250565b60006125b7601083612028565b91506125c282612581565b602082019050919050565b600060208201905081810360008301526125e6816125aa565b9050919050565b7f4e487b7100000000000000000000000000000000000000000000000000000000600052601160045260246000fd5b600061262782611a92565b915061263283611a92565b925082820190508082111561264a576126496125ed565b5b92915050565b7f546f6f206c61746520746f206265740000000000000000000000000000000000600082015250565b6000612686600f83612028565b915061269182612650565b602082019050919050565b600060208201905081810360008301526126b581612679565b9050919050565b60006060820190506126d16000830186611bf9565b6126de6020830185611bf9565b6126eb6040830184611d77565b949350505050565b60006126fe82611a92565b915061270983611a92565b9250828203905081811115612721576127206125ed565b5b92915050565b600080fd5b600080fd5b6000808585111561274557612744612727565b5b838611156127565761275561272c565b5b6001850283019150848603905094509492505050565b600082905092915050565b60007fffffffffffffffffffffffffffffffffffffffff00000000000000000000000082169050919050565b600082821b905092915050565b60006127bc838361276c565b826127c78135612777565b92506014821015612807576128027fffffffffffffffffffffffffffffffffffffffff000000000000000000000000836014036008026127a3565b831692505b50509291505056fea2646970667358221220c2636785c68515c728912744de6eae3f2b74c96ccdbca141ba476c6941e27baa64736f6c634300081c0033",
  "linkReferences": {},
  "deployedLinkReferences": {}
}