{
  "_format": "hh-sol-artifact-1",
  "contractName": "AttendanceRewardMeta",
  "sourceName": "contracts/AttendanceRewardMeta.sol",
  "abi": [
    {
      "inputs": [
        {
          "internalType": "address",
          "name": "_engageToken",
          "type": "address"
        },
        {
          "internalType": "address",
          "name": "_auctionToken",
          "type": "address"
        },
        {
          "internalType": "address",
          "name": "forwarder",
          "type": "address"
        }
      ],
      "stateMutability": "nonpayable",
      "type": "constructor"
    },
    {
      "inputs": [
        {
          "internalType": "address",
          "name": "owner",
          "type": "address"
        }
      ],
      "name": "OwnableInvalidOwner",
      "type": "error"
    },
    {
      "inputs": [
        {
          "internalType": "address",
          "name": "account",
          "type": "address"
        }
      ],
      "name": "OwnableUnauthorizedAccount",
      "type": "error"
    },
    {
      "anonymous": false,
      "inputs": [
        {
          "indexed": true,
          "internalType": "address",
          "name": "previousOwner",
          "type": "address"
        },
        {
          "indexed": true,
          "internalType": "address",
          "name": "newOwner",
          "type": "address"
        }
      ],
      "name": "OwnershipTransferred",
      "type": "event"
    },
    {
      "inputs": [],
      "name": "auctionToken",
      "outputs": [
        {
          "internalType": "contract AuctionToken",
          "name": "",
          "type": "address"
        }
      ],
      "stateMutability": "view",
      "type": "function"
    },
    {
      "inputs": [],
      "name": "claimAuction",
      "outputs": [],
      "stateMutability": "nonpayable",
      "type": "function"
    },
    {
      "inputs": [],
      "name": "claimEngage",
      "outputs": [],
      "stateMutability": "nonpayable",
      "type": "function"
    },
    {
      "inputs": [],
      "name": "engageToken",
      "outputs": [
        {
          "internalType": "contract EngageToken",
          "name": "",
          "type": "address"
        }
      ],
      "stateMutability": "view",
      "type": "function"
    },
    {
      "inputs": [
        {
          "internalType": "address",
          "name": "forwarder",
          "type": "address"
        }
      ],
      "name": "isTrustedForwarder",
      "outputs": [
        {
          "internalType": "bool",
          "name": "",
          "type": "bool"
        }
      ],
      "stateMutability": "view",
      "type": "function"
    },
    {
      "inputs": [
        {
          "internalType": "address",
          "name": "",
          "type": "address"
        }
      ],
      "name": "lastClaimedDayAuction",
      "outputs": [
        {
          "internalType": "uint256",
          "name": "",
          "type": "uint256"
        }
      ],
      "stateMutability": "view",
      "type": "function"
    },
    {
      "inputs": [
        {
          "internalType": "address",
          "name": "",
          "type": "address"
        }
      ],
      "name": "lastClaimedDayEngage",
      "outputs": [
        {
          "internalType": "uint256",
          "name": "",
          "type": "uint256"
        }
      ],
      "stateMutability": "view",
      "type": "function"
    },
    {
      "inputs": [],
      "name": "owner",
      "outputs": [
        {
          "internalType": "address",
          "name": "",
          "type": "address"
        }
      ],
      "stateMutability": "view",
      "type": "function"
    },
    {
      "inputs": [],
      "name": "renounceOwnership",
      "outputs": [],
      "stateMutability": "nonpayable",
      "type": "function"
    },
    {
      "inputs": [],
      "name": "rewardAmount",
      "outputs": [
        {
          "internalType": "uint256",
          "name": "",
          "type": "uint256"
        }
      ],
      "stateMutability": "view",
      "type": "function"
    },
    {
      "inputs": [
        {
          "internalType": "uint256",
          "name": "newAmount",
          "type": "uint256"
        }
      ],
      "name": "setRewardAmount",
      "outputs": [],
      "stateMutability": "nonpayable",
      "type": "function"
    },
    {
      "inputs": [
        {
          "internalType": "address",
          "name": "newOwner",
          "type": "address"
        }
      ],
      "name": "transferOwnership",
      "outputs": [],
      "stateMutability": "nonpayable",
      "type": "function"
    },
    {
      "inputs": [],
      "name": "trustedForwarder",
      "outputs": [
        {
          "internalType": "address",
          "name": "",
          "type": "address"
        }
      ],
      "stateMutability": "view",
      "type": "function"
    }
  ],
  "bytecode": "0x60a060405268056bc75e2d6310000060035534801561001d57600080fd5b50604051611403380380611403833981810160405281019061003f91906102ea565b33818073ffffffffffffffffffffffffffffffffffffffff1660808173ffffffffffffffffffffffffffffffffffffffff168152505050600073ffffffffffffffffffffffffffffffffffffffff168173ffffffffffffffffffffffffffffffffffffffff16036100e85760006040517f1e4fbdf70000000000000000000000000000000000000000000000000000000081526004016100df919061034c565b60405180910390fd5b6100f7816101c360201b60201c565b5082600460006101000a81548173ffffffffffffffffffffffffffffffffffffffff021916908373ffffffffffffffffffffffffffffffffffffffff16021790555081600560006101000a81548173ffffffffffffffffffffffffffffffffffffffff021916908373ffffffffffffffffffffffffffffffffffffffff16021790555080600660006101000a81548173ffffffffffffffffffffffffffffffffffffffff021916908373ffffffffffffffffffffffffffffffffffffffff160217905550505050610367565b60008060009054906101000a900473ffffffffffffffffffffffffffffffffffffffff169050816000806101000a81548173ffffffffffffffffffffffffffffffffffffffff021916908373ffffffffffffffffffffffffffffffffffffffff1602179055508173ffffffffffffffffffffffffffffffffffffffff168173ffffffffffffffffffffffffffffffffffffffff167f8be0079c531659141344cd1fd0a4f28419497f9722a3daafe3b4186f6b6457e060405160405180910390a35050565b600080fd5b600073ffffffffffffffffffffffffffffffffffffffff82169050919050565b60006102b78261028c565b9050919050565b6102c7816102ac565b81146102d257600080fd5b50565b6000815190506102e4816102be565b92915050565b60008060006060848603121561030357610302610287565b5b6000610311868287016102d5565b9350506020610322868287016102d5565b9250506040610333868287016102d5565b9150509250925092565b610346816102ac565b82525050565b6000602082019050610361600083018461033d565b92915050565b60805161108161038260003960006104d101526110816000f3fe608060405234801561001057600080fd5b50600436106100cf5760003560e01c80638da5cb5b1161008c578063a2ecdfa411610066578063a2ecdfa4146101f0578063a8a65a78146101fa578063f2fde38b14610216578063f7b2a7be14610232576100cf565b80638da5cb5b1461018457806399dd9baa146101a257806399fdb320146101d2576100cf565b806303b28418146100d4578063572b6c05146100de57806364b6c6911461010e578063715018a61461013e57806378670b4d146101485780637da0a87714610166575b600080fd5b6100dc610250565b005b6100f860048036038101906100f39190610a33565b610421565b6040516101059190610a7b565b60405180910390f35b61012860048036038101906101239190610a33565b61047b565b6040516101359190610aaf565b60405180910390f35b610146610493565b005b6101506104a7565b60405161015d9190610b29565b60405180910390f35b61016e6104cd565b60405161017b9190610b53565b60405180910390f35b61018c6104f5565b6040516101999190610b53565b60405180910390f35b6101bc60048036038101906101b79190610a33565b61051e565b6040516101c99190610aaf565b60405180910390f35b6101da610536565b6040516101e79190610b8f565b60405180910390f35b6101f861055c565b005b610214600480360381019061020f9190610bd6565b61072d565b005b610230600480360381019061022b9190610a33565b61073f565b005b61023a6107c5565b6040516102479190610aaf565b60405180910390f35b600061025a6107cb565b905060006102666107da565b905080600160008473ffffffffffffffffffffffffffffffffffffffff1673ffffffffffffffffffffffffffffffffffffffff16815260200190815260200160002054106102e9576040517f08c379a00000000000000000000000000000000000000000000000000000000081526004016102e090610c86565b60405180910390fd5b80600160008473ffffffffffffffffffffffffffffffffffffffff1673ffffffffffffffffffffffffffffffffffffffff168152602001908152602001600020819055506000600460009054906101000a900473ffffffffffffffffffffffffffffffffffffffff1673ffffffffffffffffffffffffffffffffffffffff166323b872dd6103756104f5565b856003546040518463ffffffff1660e01b815260040161039793929190610ca6565b6020604051808303816000875af11580156103b6573d6000803e3d6000fd5b505050506040513d601f19601f820116820180604052508101906103da9190610d09565b90508061041c576040517f08c379a000000000000000000000000000000000000000000000000000000000815260040161041390610d82565b60405180910390fd5b505050565b6000600660009054906101000a900473ffffffffffffffffffffffffffffffffffffffff1673ffffffffffffffffffffffffffffffffffffffff168273ffffffffffffffffffffffffffffffffffffffff16149050919050565b60016020528060005260406000206000915090505481565b61049b6107f0565b6104a56000610877565b565b600460009054906101000a900473ffffffffffffffffffffffffffffffffffffffff1681565b60007f0000000000000000000000000000000000000000000000000000000000000000905090565b60008060009054906101000a900473ffffffffffffffffffffffffffffffffffffffff16905090565b60026020528060005260406000206000915090505481565b600560009054906101000a900473ffffffffffffffffffffffffffffffffffffffff1681565b60006105666107cb565b905060006105726107da565b905080600260008473ffffffffffffffffffffffffffffffffffffffff1673ffffffffffffffffffffffffffffffffffffffff16815260200190815260200160002054106105f5576040517f08c379a00000000000000000000000000000000000000000000000000000000081526004016105ec90610e14565b60405180910390fd5b80600260008473ffffffffffffffffffffffffffffffffffffffff1673ffffffffffffffffffffffffffffffffffffffff168152602001908152602001600020819055506000600560009054906101000a900473ffffffffffffffffffffffffffffffffffffffff1673ffffffffffffffffffffffffffffffffffffffff166323b872dd6106816104f5565b856003546040518463ffffffff1660e01b81526004016106a393929190610ca6565b6020604051808303816000875af11580156106c2573d6000803e3d6000fd5b505050506040513d601f19601f820116820180604052508101906106e69190610d09565b905080610728576040517f08c379a000000000000000000000000000000000000000000000000000000000815260040161071f90610e80565b60405180910390fd5b505050565b6107356107f0565b8060038190555050565b6107476107f0565b600073ffffffffffffffffffffffffffffffffffffffff168173ffffffffffffffffffffffffffffffffffffffff16036107b95760006040517f1e4fbdf70000000000000000000000000000000000000000000000000000000081526004016107b09190610b53565b60405180910390fd5b6107c281610877565b50565b60035481565b60006107d561093b565b905090565b600062015180426107eb9190610efe565b905090565b6107f86107cb565b73ffffffffffffffffffffffffffffffffffffffff166108166104f5565b73ffffffffffffffffffffffffffffffffffffffff1614610875576108396107cb565b6040517f118cdaa700000000000000000000000000000000000000000000000000000000815260040161086c9190610b53565b60405180910390fd5b565b60008060009054906101000a900473ffffffffffffffffffffffffffffffffffffffff169050816000806101000a81548173ffffffffffffffffffffffffffffffffffffffff021916908373ffffffffffffffffffffffffffffffffffffffff1602179055508173ffffffffffffffffffffffffffffffffffffffff168173ffffffffffffffffffffffffffffffffffffffff167f8be0079c531659141344cd1fd0a4f28419497f9722a3daafe3b4186f6b6457e060405160405180910390a35050565b60008060003690509050600061094f6109b0565b905061095a33610421565b80156109665750808210155b156109a057600036828461097a9190610f2f565b90809261098993929190610f6d565b906109949190610fec565b60601c925050506109ad565b6109a86109bf565b925050505b90565b60006109ba6109c7565b905090565b600033905090565b60006014905090565b600080fd5b600073ffffffffffffffffffffffffffffffffffffffff82169050919050565b6000610a00826109d5565b9050919050565b610a10816109f5565b8114610a1b57600080fd5b50565b600081359050610a2d81610a07565b92915050565b600060208284031215610a4957610a486109d0565b5b6000610a5784828501610a1e565b91505092915050565b60008115159050919050565b610a7581610a60565b82525050565b6000602082019050610a906000830184610a6c565b92915050565b6000819050919050565b610aa981610a96565b82525050565b6000602082019050610ac46000830184610aa0565b92915050565b6000819050919050565b6000610aef610aea610ae5846109d5565b610aca565b6109d5565b9050919050565b6000610b0182610ad4565b9050919050565b6000610b1382610af6565b9050919050565b610b2381610b08565b82525050565b6000602082019050610b3e6000830184610b1a565b92915050565b610b4d816109f5565b82525050565b6000602082019050610b686000830184610b44565b92915050565b6000610b7982610af6565b9050919050565b610b8981610b6e565b82525050565b6000602082019050610ba46000830184610b80565b92915050565b610bb381610a96565b8114610bbe57600080fd5b50565b600081359050610bd081610baa565b92915050565b600060208284031215610bec57610beb6109d0565b5b6000610bfa84828501610bc1565b91505092915050565b600082825260208201905092915050565b7f456e67616765546f6b656e20616c726561647920636c61696d656420746f646160008201527f7900000000000000000000000000000000000000000000000000000000000000602082015250565b6000610c70602183610c03565b9150610c7b82610c14565b604082019050919050565b60006020820190508181036000830152610c9f81610c63565b9050919050565b6000606082019050610cbb6000830186610b44565b610cc86020830185610b44565b610cd56040830184610aa0565b949350505050565b610ce681610a60565b8114610cf157600080fd5b50565b600081519050610d0381610cdd565b92915050565b600060208284031215610d1f57610d1e6109d0565b5b6000610d2d84828501610cf4565b91505092915050565b7f456e67616765546f6b656e207472616e73666572206661696c65640000000000600082015250565b6000610d6c601b83610c03565b9150610d7782610d36565b602082019050919050565b60006020820190508181036000830152610d9b81610d5f565b9050919050565b7f41756374696f6e546f6b656e20616c726561647920636c61696d656420746f6460008201527f6179000000000000000000000000000000000000000000000000000000000000602082015250565b6000610dfe602283610c03565b9150610e0982610da2565b604082019050919050565b60006020820190508181036000830152610e2d81610df1565b9050919050565b7f41756374696f6e546f6b656e207472616e73666572206661696c656400000000600082015250565b6000610e6a601c83610c03565b9150610e7582610e34565b602082019050919050565b60006020820190508181036000830152610e9981610e5d565b9050919050565b7f4e487b7100000000000000000000000000000000000000000000000000000000600052601260045260246000fd5b7f4e487b7100000000000000000000000000000000000000000000000000000000600052601160045260246000fd5b6000610f0982610a96565b9150610f1483610a96565b925082610f2457610f23610ea0565b5b828204905092915050565b6000610f3a82610a96565b9150610f4583610a96565b9250828203905081811115610f5d57610f5c610ecf565b5b92915050565b600080fd5b600080fd5b60008085851115610f8157610f80610f63565b5b83861115610f9257610f91610f68565b5b6001850283019150848603905094509492505050565b600082905092915050565b60007fffffffffffffffffffffffffffffffffffffffff00000000000000000000000082169050919050565b600082821b905092915050565b6000610ff88383610fa8565b826110038135610fb3565b925060148210156110435761103e7fffffffffffffffffffffffffffffffffffffffff00000000000000000000000083601403600802610fdf565b831692505b50509291505056fea26469706673582212207648e0a4ea68c30236c5a10c332d3c123a0dfc96bfc57a2d447c5ee7dfec8f1d64736f6c634300081c0033",
  "linkReferences": {},
  "deployedLinkReferences": {}
}