{
  "_format": "hh-sol-artifact-1",
  "contractName": "UserMintedNFT",
  "sourceName": "contracts/UserMintedNFT.sol",
  "abi": [
    {
      "inputs": [
        {
          "internalType": "address",
          "name": "forwarder",
          "type": "address"
        }
      ],
      "stateMutability": "nonpayable",
      "type": "constructor"
    },
    {
      "inputs": [
        {
          "internalType": "address",
          "name": "sender",
          "type": "address"
        },
        {
          "internalType": "uint256",
          "name": "tokenId",
          "type": "uint256"
        },
        {
          "internalType": "address",
          "name": "owner",
          "type": "address"
        }
      ],
      "name": "ERC721IncorrectOwner",
      "type": "error"
    },
    {
      "inputs": [
        {
          "internalType": "address",
          "name": "operator",
          "type": "address"
        },
        {
          "internalType": "uint256",
          "name": "tokenId",
          "type": "uint256"
        }
      ],
      "name": "ERC721InsufficientApproval",
      "type": "error"
    },
    {
      "inputs": [
        {
          "internalType": "address",
          "name": "approver",
          "type": "address"
        }
      ],
      "name": "ERC721InvalidApprover",
      "type": "error"
    },
    {
      "inputs": [
        {
          "internalType": "address",
          "name": "operator",
          "type": "address"
        }
      ],
      "name": "ERC721InvalidOperator",
      "type": "error"
    },
    {
      "inputs": [
        {
          "internalType": "address",
          "name": "owner",
          "type": "address"
        }
      ],
      "name": "ERC721InvalidOwner",
      "type": "error"
    },
    {
      "inputs": [
        {
          "internalType": "address",
          "name": "receiver",
          "type": "address"
        }
      ],
      "name": "ERC721InvalidReceiver",
      "type": "error"
    },
    {
      "inputs": [
        {
          "internalType": "address",
          "name": "sender",
          "type": "address"
        }
      ],
      "name": "ERC721InvalidSender",
      "type": "error"
    },
    {
      "inputs": [
        {
          "internalType": "uint256",
          "name": "tokenId",
          "type": "uint256"
        }
      ],
      "name": "ERC721NonexistentToken",
      "type": "error"
    },
    {
      "inputs": [
        {
          "internalType": "address",
          "name": "owner",
          "type": "address"
        }
      ],
      "name": "OwnableInvalidOwner",
      "type": "error"
    },
    {
      "inputs": [
        {
          "internalType": "address",
          "name": "account",
          "type": "address"
        }
      ],
      "name": "OwnableUnauthorizedAccount",
      "type": "error"
    },
    {
      "anonymous": false,
      "inputs": [
        {
          "indexed": true,
          "internalType": "address",
          "name": "owner",
          "type": "address"
        },
        {
          "indexed": true,
          "internalType": "address",
          "name": "approved",
          "type": "address"
        },
        {
          "indexed": true,
          "internalType": "uint256",
          "name": "tokenId",
          "type": "uint256"
        }
      ],
      "name": "Approval",
      "type": "event"
    },
    {
      "anonymous": false,
      "inputs": [
        {
          "indexed": true,
          "internalType": "address",
          "name": "owner",
          "type": "address"
        },
        {
          "indexed": true,
          "internalType": "address",
          "name": "operator",
          "type": "address"
        },
        {
          "indexed": false,
          "internalType": "bool",
          "name": "approved",
          "type": "bool"
        }
      ],
      "name": "ApprovalForAll",
      "type": "event"
    },
    {
      "anonymous": false,
      "inputs": [
        {
          "indexed": false,
          "internalType": "uint256",
          "name": "_fromTokenId",
          "type": "uint256"
        },
        {
          "indexed": false,
          "internalType": "uint256",
          "name": "_toTokenId",
          "type": "uint256"
        }
      ],
      "name": "BatchMetadataUpdate",
      "type": "event"
    },
    {
      "anonymous": false,
      "inputs": [
        {
          "indexed": false,
          "internalType": "uint256",
          "name": "_tokenId",
          "type": "uint256"
        }
      ],
      "name": "MetadataUpdate",
      "type": "event"
    },
    {
      "anonymous": false,
      "inputs": [
        {
          "indexed": true,
          "internalType": "address",
          "name": "minter",
          "type": "address"
        },
        {
          "indexed": false,
          "internalType": "uint256",
          "name": "tokenId",
          "type": "uint256"
        },
        {
          "indexed": false,
          "internalType": "string",
          "name": "uri",
          "type": "string"
        }
      ],
      "name": "Minted",
      "type": "event"
    },
    {
      "anonymous": false,
      "inputs": [
        {
          "indexed": true,
          "internalType": "address",
          "name": "previousOwner",
          "type": "address"
        },
        {
          "indexed": true,
          "internalType": "address",
          "name": "newOwner",
          "type": "address"
        }
      ],
      "name": "OwnershipTransferred",
      "type": "event"
    },
    {
      "anonymous": false,
      "inputs": [
        {
          "indexed": true,
          "internalType": "address",
          "name": "from",
          "type": "address"
        },
        {
          "indexed": true,
          "internalType": "address",
          "name": "to",
          "type": "address"
        },
        {
          "indexed": true,
          "internalType": "uint256",
          "name": "tokenId",
          "type": "uint256"
        }
      ],
      "name": "Transfer",
      "type": "event"
    },
    {
      "inputs": [
        {
          "internalType": "address",
          "name": "to",
          "type": "address"
        },
        {
          "internalType": "uint256",
          "name": "tokenId",
          "type": "uint256"
        }
      ],
      "name": "approve",
      "outputs": [],
      "stateMutability": "nonpayable",
      "type": "function"
    },
    {
      "inputs": [
        {
          "internalType": "address",
          "name": "owner",
          "type": "address"
        }
      ],
      "name": "balanceOf",
      "outputs": [
        {
          "internalType": "uint256",
          "name": "",
          "type": "uint256"
        }
      ],
      "stateMutability": "view",
      "type": "function"
    },
    {
      "inputs": [],
      "name": "getAllTokenIds",
      "outputs": [
        {
          "internalType": "uint256[]",
          "name": "",
          "type": "uint256[]"
        }
      ],
      "stateMutability": "view",
      "type": "function"
    },
    {
      "inputs": [
        {
          "internalType": "uint256",
          "name": "tokenId",
          "type": "uint256"
        }
      ],
      "name": "getApproved",
      "outputs": [
        {
          "internalType": "address",
          "name": "",
          "type": "address"
        }
      ],
      "stateMutability": "view",
      "type": "function"
    },
    {
      "inputs": [
        {
          "internalType": "address",
          "name": "owner",
          "type": "address"
        }
      ],
      "name": "getTokensOfOwner",
      "outputs": [
        {
          "internalType": "uint256[]",
          "name": "",
          "type": "uint256[]"
        }
      ],
      "stateMutability": "view",
      "type": "function"
    },
    {
      "inputs": [
        {
          "internalType": "address",
          "name": "owner",
          "type": "address"
        },
        {
          "internalType": "address",
          "name": "operator",
          "type": "address"
        }
      ],
      "name": "isApprovedForAll",
      "outputs": [
        {
          "internalType": "bool",
          "name": "",
          "type": "bool"
        }
      ],
      "stateMutability": "view",
      "type": "function"
    },
    {
      "inputs": [
        {
          "internalType": "address",
          "name": "forwarder",
          "type": "address"
        }
      ],
      "name": "isTrustedForwarder",
      "outputs": [
        {
          "internalType": "bool",
          "name": "",
          "type": "bool"
        }
      ],
      "stateMutability": "view",
      "type": "function"
    },
    {
      "inputs": [
        {
          "internalType": "string",
          "name": "tokenURI",
          "type": "string"
        }
      ],
      "name": "mint",
      "outputs": [
        {
          "internalType": "uint256",
          "name": "",
          "type": "uint256"
        }
      ],
      "stateMutability": "nonpayable",
      "type": "function"
    },
    {
      "inputs": [],
      "name": "name",
      "outputs": [
        {
          "internalType": "string",
          "name": "",
          "type": "string"
        }
      ],
      "stateMutability": "view",
      "type": "function"
    },
    {
      "inputs": [],
      "name": "owner",
      "outputs": [
        {
          "internalType": "address",
          "name": "",
          "type": "address"
        }
      ],
      "stateMutability": "view",
      "type": "function"
    },
    {
      "inputs": [
        {
          "internalType": "uint256",
          "name": "tokenId",
          "type": "uint256"
        }
      ],
      "name": "ownerOf",
      "outputs": [
        {
          "internalType": "address",
          "name": "",
          "type": "address"
        }
      ],
      "stateMutability": "view",
      "type": "function"
    },
    {
      "inputs": [],
      "name": "renounceOwnership",
      "outputs": [],
      "stateMutability": "nonpayable",
      "type": "function"
    },
    {
      "inputs": [
        {
          "internalType": "address",
          "name": "from",
          "type": "address"
        },
        {
          "internalType": "address",
          "name": "to",
          "type": "address"
        },
        {
          "internalType": "uint256",
          "name": "tokenId",
          "type": "uint256"
        }
      ],
      "name": "safeTransferFrom",
      "outputs": [],
      "stateMutability": "nonpayable",
      "type": "function"
    },
    {
      "inputs": [
        {
          "internalType": "address",
          "name": "from",
          "type": "address"
        },
        {
          "internalType": "address",
          "name": "to",
          "type": "address"
        },
        {
          "internalType": "uint256",
          "name": "tokenId",
          "type": "uint256"
        },
        {
          "internalType": "bytes",
          "name": "data",
          "type": "bytes"
        }
      ],
      "name": "safeTransferFrom",
      "outputs": [],
      "stateMutability": "nonpayable",
      "type": "function"
    },
    {
      "inputs": [
        {
          "internalType": "address",
          "name": "operator",
          "type": "address"
        },
        {
          "internalType": "bool",
          "name": "approved",
          "type": "bool"
        }
      ],
      "name": "setApprovalForAll",
      "outputs": [],
      "stateMutability": "nonpayable",
      "type": "function"
    },
    {
      "inputs": [
        {
          "internalType": "bytes4",
          "name": "interfaceId",
          "type": "bytes4"
        }
      ],
      "name": "supportsInterface",
      "outputs": [
        {
          "internalType": "bool",
          "name": "",
          "type": "bool"
        }
      ],
      "stateMutability": "view",
      "type": "function"
    },
    {
      "inputs": [],
      "name": "symbol",
      "outputs": [
        {
          "internalType": "string",
          "name": "",
          "type": "string"
        }
      ],
      "stateMutability": "view",
      "type": "function"
    },
    {
      "inputs": [
        {
          "internalType": "uint256",
          "name": "tokenId",
          "type": "uint256"
        }
      ],
      "name": "tokenURI",
      "outputs": [
        {
          "internalType": "string",
          "name": "",
          "type": "string"
        }
      ],
      "stateMutability": "view",
      "type": "function"
    },
    {
      "inputs": [
        {
          "internalType": "address",
          "name": "from",
          "type": "address"
        },
        {
          "internalType": "address",
          "name": "to",
          "type": "address"
        },
        {
          "internalType": "uint256",
          "name": "tokenId",
          "type": "uint256"
        }
      ],
      "name": "transferFrom",
      "outputs": [],
      "stateMutability": "nonpayable",
      "type": "function"
    },
    {
      "inputs": [
        {
          "internalType": "address",
          "name": "newOwner",
          "type": "address"
        }
      ],
      "name": "transferOwnership",
      "outputs": [],
      "stateMutability": "nonpayable",
      "type": "function"
    },
    {
      "inputs": [],
      "name": "trustedForwarder",
      "outputs": [
        {
          "internalType": "address",
          "name": "",
          "type": "address"
        }
      ],
      "stateMutability": "view",
      "type": "function"
    }
  ],
  "bytecode": "0x60c0604052600160085534801561001557600080fd5b506040516135df3803806135df833981810160405281019061003791906103ea565b6100456101c560201b60201c565b816040518060400160405280600781526020017f557365724e4654000000000000000000000000000000000000000000000000008152506040518060400160405280600481526020017f554e46540000000000000000000000000000000000000000000000000000000081525081600090816100c19190610667565b5080600190816100d19190610667565b5050508073ffffffffffffffffffffffffffffffffffffffff1660808173ffffffffffffffffffffffffffffffffffffffff168152505050600073ffffffffffffffffffffffffffffffffffffffff168173ffffffffffffffffffffffffffffffffffffffff160361017b5760006040517f1e4fbdf70000000000000000000000000000000000000000000000000000000081526004016101729190610748565b60405180910390fd5b61018a816101da60201b60201c565b508073ffffffffffffffffffffffffffffffffffffffff1660a08173ffffffffffffffffffffffffffffffffffffffff1681525050506108a1565b60006101d56102a060201b60201c565b905090565b6000600760009054906101000a900473ffffffffffffffffffffffffffffffffffffffff16905081600760006101000a81548173ffffffffffffffffffffffffffffffffffffffff021916908373ffffffffffffffffffffffffffffffffffffffff1602179055508173ffffffffffffffffffffffffffffffffffffffff168173ffffffffffffffffffffffffffffffffffffffff167f8be0079c531659141344cd1fd0a4f28419497f9722a3daafe3b4186f6b6457e060405160405180910390a35050565b6000806000369050905060006102ba61032760201b60201c565b90506102cb3361033c60201b60201c565b80156102d75750808210155b156103115760003682846102eb9190610792565b9080926102fa939291906107d0565b906103059190610842565b60601c92505050610324565b61031f61037660201b60201c565b925050505b90565b600061033761037e60201b60201c565b905090565b600060a05173ffffffffffffffffffffffffffffffffffffffff168273ffffffffffffffffffffffffffffffffffffffff16149050919050565b600033905090565b60006014905090565b600080fd5b600073ffffffffffffffffffffffffffffffffffffffff82169050919050565b60006103b78261038c565b9050919050565b6103c7816103ac565b81146103d257600080fd5b50565b6000815190506103e4816103be565b92915050565b600060208284031215610400576103ff610387565b5b600061040e848285016103d5565b91505092915050565b600081519050919050565b7f4e487b7100000000000000000000000000000000000000000000000000000000600052604160045260246000fd5b7f4e487b7100000000000000000000000000000000000000000000000000000000600052602260045260246000fd5b6000600282049050600182168061049857607f821691505b6020821081036104ab576104aa610451565b5b50919050565b60008190508160005260206000209050919050565b60006020601f8301049050919050565b600082821b905092915050565b6000600883026105137fffffffffffffffffffffffffffffffffffffffffffffffffffffffffffffffff826104d6565b61051d86836104d6565b95508019841693508086168417925050509392505050565b6000819050919050565b6000819050919050565b600061056461055f61055a84610535565b61053f565b610535565b9050919050565b6000819050919050565b61057e83610549565b61059261058a8261056b565b8484546104e3565b825550505050565b600090565b6105a761059a565b6105b2818484610575565b505050565b5b818110156105d6576105cb60008261059f565b6001810190506105b8565b5050565b601f82111561061b576105ec816104b1565b6105f5846104c6565b81016020851015610604578190505b610618610610856104c6565b8301826105b7565b50505b505050565b600082821c905092915050565b600061063e60001984600802610620565b1980831691505092915050565b6000610657838361062d565b9150826002028217905092915050565b61067082610417565b67ffffffffffffffff81111561068957610688610422565b5b6106938254610480565b61069e8282856105da565b600060209050601f8311600181146106d157600084156106bf578287015190505b6106c9858261064b565b865550610731565b601f1984166106df866104b1565b60005b82811015610707578489015182556001820191506020850194506020810190506106e2565b868310156107245784890151610720601f89168261062d565b8355505b6001600288020188555050505b505050505050565b610742816103ac565b82525050565b600060208201905061075d6000830184610739565b92915050565b7f4e487b7100000000000000000000000000000000000000000000000000000000600052601160045260246000fd5b600061079d82610535565b91506107a883610535565b92508282039050818111156107c0576107bf610763565b5b92915050565b600080fd5b600080fd5b600080858511156107e4576107e36107c6565b5b838611156107f5576107f46107cb565b5b6001850283019150848603905094509492505050565b600082905092915050565b60007fffffffffffffffffffffffffffffffffffffffff00000000000000000000000082169050919050565b600061084e838361080b565b826108598135610816565b92506014821015610899576108947fffffffffffffffffffffffffffffffffffffffff000000000000000000000000836014036008026104d6565b831692505b505092915050565b60805160a051612d196108c6600039600061067f0152600061095d0152612d196000f3fe608060405234801561001057600080fd5b50600436106101375760003560e01c8063715018a6116100b8578063b88d4fde1161007c578063b88d4fde1461034e578063bdbed7221461036a578063c87b56dd14610388578063d85d3d27146103b8578063e985e9c5146103e8578063f2fde38b1461041857610137565b8063715018a6146102ce5780637da0a877146102d85780638da5cb5b146102f657806395d89b4114610314578063a22cb4651461033257610137565b806342842e0e116100ff57806342842e0e146101f2578063572b6c051461020e5780635de6dc551461023e5780636352211e1461026e57806370a082311461029e57610137565b806301ffc9a71461013c57806306fdde031461016c578063081812fc1461018a578063095ea7b3146101ba57806323b872dd146101d6575b600080fd5b61015660048036038101906101519190611f36565b610434565b6040516101639190611f7e565b60405180910390f35b610174610495565b6040516101819190612029565b60405180910390f35b6101a4600480360381019061019f9190612081565b610527565b6040516101b191906120ef565b60405180910390f35b6101d460048036038101906101cf9190612136565b610543565b005b6101f060048036038101906101eb9190612176565b610559565b005b61020c60048036038101906102079190612176565b61065b565b005b610228600480360381019061022391906121c9565b61067b565b6040516102359190611f7e565b60405180910390f35b610258600480360381019061025391906121c9565b6106d3565b60405161026591906122b4565b60405180910390f35b61028860048036038101906102839190612081565b610879565b60405161029591906120ef565b60405180910390f35b6102b860048036038101906102b391906121c9565b61088b565b6040516102c591906122e5565b60405180910390f35b6102d6610945565b005b6102e0610959565b6040516102ed91906120ef565b60405180910390f35b6102fe610981565b60405161030b91906120ef565b60405180910390f35b61031c6109ab565b6040516103299190612029565b60405180910390f35b61034c6004803603810190610347919061232c565b610a3d565b005b610368600480360381019061036391906124a1565b610a53565b005b610372610a78565b60405161037f91906122b4565b60405180910390f35b6103a2600480360381019061039d9190612081565b610ad0565b6040516103af9190612029565b60405180910390f35b6103d260048036038101906103cd91906125c5565b610be3565b6040516103df91906122e5565b60405180910390f35b61040260048036038101906103fd919061260e565b610ca3565b60405161040f9190611f7e565b60405180910390f35b610432600480360381019061042d91906121c9565b610d37565b005b6000634906490660e01b7bffffffffffffffffffffffffffffffffffffffffffffffffffffffff1916827bffffffffffffffffffffffffffffffffffffffffffffffffffffffff1916148061048e575061048d82610dbd565b5b9050919050565b6060600080546104a49061267d565b80601f01602080910402602001604051908101604052809291908181526020018280546104d09061267d565b801561051d5780601f106104f25761010080835404028352916020019161051d565b820191906000526020600020905b81548152906001019060200180831161050057829003601f168201915b5050505050905090565b600061053282610e9f565b5061053c82610f27565b9050919050565b6105558282610550610f64565b610f73565b5050565b600073ffffffffffffffffffffffffffffffffffffffff168273ffffffffffffffffffffffffffffffffffffffff16036105cb5760006040517f64a0ae920000000000000000000000000000000000000000000000000000000081526004016105c291906120ef565b60405180910390fd5b60006105df83836105da610f64565b610f85565b90508373ffffffffffffffffffffffffffffffffffffffff168173ffffffffffffffffffffffffffffffffffffffff1614610655578382826040517f64283d7b00000000000000000000000000000000000000000000000000000000815260040161064c939291906126ae565b60405180910390fd5b50505050565b61067683838360405180602001604052806000815250610a53565b505050565b60007f000000000000000000000000000000000000000000000000000000000000000073ffffffffffffffffffffffffffffffffffffffff168273ffffffffffffffffffffffffffffffffffffffff16149050919050565b60606000805b60098054905081101561075b578373ffffffffffffffffffffffffffffffffffffffff1661072460098381548110610714576107136126e5565b5b9060005260206000200154610879565b73ffffffffffffffffffffffffffffffffffffffff160361074e57818061074a90612743565b9250505b80806001019150506106d9565b5060008167ffffffffffffffff81111561077857610777612376565b5b6040519080825280602002602001820160405280156107a65781602001602082028036833780820191505090505b5090506000805b60098054905081101561086d578573ffffffffffffffffffffffffffffffffffffffff166107f8600983815481106107e8576107e76126e5565b5b9060005260206000200154610879565b73ffffffffffffffffffffffffffffffffffffffff16036108605760098181548110610827576108266126e5565b5b9060005260206000200154838381518110610845576108446126e5565b5b602002602001018181525050818061085c90612743565b9250505b80806001019150506107ad565b50819350505050919050565b600061088482610e9f565b9050919050565b60008073ffffffffffffffffffffffffffffffffffffffff168273ffffffffffffffffffffffffffffffffffffffff16036108fe5760006040517f89c62b640000000000000000000000000000000000000000000000000000000081526004016108f591906120ef565b60405180910390fd5b600360008373ffffffffffffffffffffffffffffffffffffffff1673ffffffffffffffffffffffffffffffffffffffff168152602001908152602001600020549050919050565b61094d61119f565b6109576000611226565b565b60007f0000000000000000000000000000000000000000000000000000000000000000905090565b6000600760009054906101000a900473ffffffffffffffffffffffffffffffffffffffff16905090565b6060600180546109ba9061267d565b80601f01602080910402602001604051908101604052809291908181526020018280546109e69061267d565b8015610a335780601f10610a0857610100808354040283529160200191610a33565b820191906000526020600020905b815481529060010190602001808311610a1657829003601f168201915b5050505050905090565b610a4f610a48610f64565b83836112ec565b5050565b610a5e848484610559565b610a72610a69610f64565b8585858561145b565b50505050565b60606009805480602002602001604051908101604052809291908181526020018280548015610ac657602002820191906000526020600020905b815481526020019060010190808311610ab2575b5050505050905090565b6060610adb82610e9f565b506000600660008481526020019081526020016000208054610afc9061267d565b80601f0160208091040260200160405190810160405280929190818152602001828054610b289061267d565b8015610b755780601f10610b4a57610100808354040283529160200191610b75565b820191906000526020600020905b815481529060010190602001808311610b5857829003601f168201915b505050505090506000610b8661160c565b90506000815103610b9b578192505050610bde565b600082511115610bd0578082604051602001610bb89291906127c7565b60405160208183030381529060405292505050610bde565b610bd984611623565b925050505b919050565b60008060086000815480929190610bf990612743565b919050559050610c10610c0a610f64565b8261168c565b610c1a81846116aa565b6009819080600181540180825580915050600190039060005260206000200160009091909190915055610c4b610f64565b73ffffffffffffffffffffffffffffffffffffffff167fe7cd4ce7f2a465edc730269a1305e8a48bad821e8fb7e152ec413829c01a53c48285604051610c929291906127eb565b60405180910390a280915050919050565b6000600560008473ffffffffffffffffffffffffffffffffffffffff1673ffffffffffffffffffffffffffffffffffffffff16815260200190815260200160002060008373ffffffffffffffffffffffffffffffffffffffff1673ffffffffffffffffffffffffffffffffffffffff16815260200190815260200160002060009054906101000a900460ff16905092915050565b610d3f61119f565b600073ffffffffffffffffffffffffffffffffffffffff168173ffffffffffffffffffffffffffffffffffffffff1603610db15760006040517f1e4fbdf7000000000000000000000000000000000000000000000000000000008152600401610da891906120ef565b60405180910390fd5b610dba81611226565b50565b60007f80ac58cd000000000000000000000000000000000000000000000000000000007bffffffffffffffffffffffffffffffffffffffffffffffffffffffff1916827bffffffffffffffffffffffffffffffffffffffffffffffffffffffff19161480610e8857507f5b5e139f000000000000000000000000000000000000000000000000000000007bffffffffffffffffffffffffffffffffffffffffffffffffffffffff1916827bffffffffffffffffffffffffffffffffffffffffffffffffffffffff1916145b80610e985750610e9782611706565b5b9050919050565b600080610eab83611770565b9050600073ffffffffffffffffffffffffffffffffffffffff168173ffffffffffffffffffffffffffffffffffffffff1603610f1e57826040517f7e273289000000000000000000000000000000000000000000000000000000008152600401610f1591906122e5565b60405180910390fd5b80915050919050565b60006004600083815260200190815260200160002060009054906101000a900473ffffffffffffffffffffffffffffffffffffffff169050919050565b6000610f6e6117ad565b905090565b610f808383836001611822565b505050565b600080610f9184611770565b9050600073ffffffffffffffffffffffffffffffffffffffff168373ffffffffffffffffffffffffffffffffffffffff1614610fd357610fd28184866119e7565b5b600073ffffffffffffffffffffffffffffffffffffffff168173ffffffffffffffffffffffffffffffffffffffff161461106457611015600085600080611822565b6001600360008373ffffffffffffffffffffffffffffffffffffffff1673ffffffffffffffffffffffffffffffffffffffff168152602001908152602001600020600082825403925050819055505b600073ffffffffffffffffffffffffffffffffffffffff168573ffffffffffffffffffffffffffffffffffffffff16146110e7576001600360008773ffffffffffffffffffffffffffffffffffffffff1673ffffffffffffffffffffffffffffffffffffffff168152602001908152602001600020600082825401925050819055505b846002600086815260200190815260200160002060006101000a81548173ffffffffffffffffffffffffffffffffffffffff021916908373ffffffffffffffffffffffffffffffffffffffff160217905550838573ffffffffffffffffffffffffffffffffffffffff168273ffffffffffffffffffffffffffffffffffffffff167fddf252ad1be2c89b69c2b068fc378daa952ba7f163c4a11628f55a4df523b3ef60405160405180910390a4809150509392505050565b6111a7610f64565b73ffffffffffffffffffffffffffffffffffffffff166111c5610981565b73ffffffffffffffffffffffffffffffffffffffff1614611224576111e8610f64565b6040517f118cdaa700000000000000000000000000000000000000000000000000000000815260040161121b91906120ef565b60405180910390fd5b565b6000600760009054906101000a900473ffffffffffffffffffffffffffffffffffffffff16905081600760006101000a81548173ffffffffffffffffffffffffffffffffffffffff021916908373ffffffffffffffffffffffffffffffffffffffff1602179055508173ffffffffffffffffffffffffffffffffffffffff168173ffffffffffffffffffffffffffffffffffffffff167f8be0079c531659141344cd1fd0a4f28419497f9722a3daafe3b4186f6b6457e060405160405180910390a35050565b600073ffffffffffffffffffffffffffffffffffffffff168273ffffffffffffffffffffffffffffffffffffffff160361135d57816040517f5b08ba1800000000000000000000000000000000000000000000000000000000815260040161135491906120ef565b60405180910390fd5b80600560008573ffffffffffffffffffffffffffffffffffffffff1673ffffffffffffffffffffffffffffffffffffffff16815260200190815260200160002060008473ffffffffffffffffffffffffffffffffffffffff1673ffffffffffffffffffffffffffffffffffffffff16815260200190815260200160002060006101000a81548160ff0219169083151502179055508173ffffffffffffffffffffffffffffffffffffffff168373ffffffffffffffffffffffffffffffffffffffff167f17307eab39ab6107e8899845ad3d59bd9653f200f220920489ca2b5937696c318360405161144e9190611f7e565b60405180910390a3505050565b60008373ffffffffffffffffffffffffffffffffffffffff163b1115611605578273ffffffffffffffffffffffffffffffffffffffff1663150b7a02868685856040518563ffffffff1660e01b81526004016114ba9493929190612870565b6020604051808303816000875af19250505080156114f657506040513d601f19601f820116820180604052508101906114f391906128d1565b60015b61157a573d8060008114611526576040519150601f19603f3d011682016040523d82523d6000602084013e61152b565b606091505b50600081510361157257836040517f64a0ae9200000000000000000000000000000000000000000000000000000000815260040161156991906120ef565b60405180910390fd5b805181602001fd5b63150b7a0260e01b7bffffffffffffffffffffffffffffffffffffffffffffffffffffffff1916817bffffffffffffffffffffffffffffffffffffffffffffffffffffffff19161461160357836040517f64a0ae920000000000000000000000000000000000000000000000000000000081526004016115fa91906120ef565b60405180910390fd5b505b5050505050565b606060405180602001604052806000815250905090565b606061162e82610e9f565b50600061163961160c565b905060008151116116595760405180602001604052806000815250611684565b8061166384611aab565b6040516020016116749291906127c7565b6040516020818303038152906040525b915050919050565b6116a6828260405180602001604052806000815250611b79565b5050565b806006600084815260200190815260200160002090816116ca9190612aaa565b507ff8e1a15aba9398e019f0b49df1a4fde98ee17ae345cb5f6b5e2c27f5033e8ce7826040516116fa91906122e5565b60405180910390a15050565b60007f01ffc9a7000000000000000000000000000000000000000000000000000000007bffffffffffffffffffffffffffffffffffffffffffffffffffffffff1916827bffffffffffffffffffffffffffffffffffffffffffffffffffffffff1916149050919050565b60006002600083815260200190815260200160002060009054906101000a900473ffffffffffffffffffffffffffffffffffffffff169050919050565b6000806000369050905060006117c1611b9d565b90506117cc3361067b565b80156117d85750808210155b156118125760003682846117ec9190612b7c565b9080926117fb93929190612bba565b906118069190612c2c565b60601c9250505061181f565b61181a611bac565b925050505b90565b808061185b5750600073ffffffffffffffffffffffffffffffffffffffff168273ffffffffffffffffffffffffffffffffffffffff1614155b1561198f57600061186b84610e9f565b9050600073ffffffffffffffffffffffffffffffffffffffff168373ffffffffffffffffffffffffffffffffffffffff16141580156118d657508273ffffffffffffffffffffffffffffffffffffffff168173ffffffffffffffffffffffffffffffffffffffff1614155b80156118e957506118e78184610ca3565b155b1561192b57826040517fa9fbf51f00000000000000000000000000000000000000000000000000000000815260040161192291906120ef565b60405180910390fd5b811561198d57838573ffffffffffffffffffffffffffffffffffffffff168273ffffffffffffffffffffffffffffffffffffffff167f8c5be1e5ebec7d5bd14f71427d1e84f3dd0314c0f7b2291e5b200ac8c7c3b92560405160405180910390a45b505b836004600085815260200190815260200160002060006101000a81548173ffffffffffffffffffffffffffffffffffffffff021916908373ffffffffffffffffffffffffffffffffffffffff16021790555050505050565b6119f2838383611bb4565b611aa657600073ffffffffffffffffffffffffffffffffffffffff168373ffffffffffffffffffffffffffffffffffffffff1603611a6757806040517f7e273289000000000000000000000000000000000000000000000000000000008152600401611a5e91906122e5565b60405180910390fd5b81816040517f177e802f000000000000000000000000000000000000000000000000000000008152600401611a9d929190612c8b565b60405180910390fd5b505050565b606060006001611aba84611c75565b01905060008167ffffffffffffffff811115611ad957611ad8612376565b5b6040519080825280601f01601f191660200182016040528015611b0b5781602001600182028036833780820191505090505b509050600082602001820190505b600115611b6e578080600190039150507f3031323334353637383961626364656600000000000000000000000000000000600a86061a8153600a8581611b6257611b61612cb4565b5b04945060008503611b19575b819350505050919050565b611b838383611dc8565b611b98611b8e610f64565b600085858561145b565b505050565b6000611ba7611ec1565b905090565b600033905090565b60008073ffffffffffffffffffffffffffffffffffffffff168373ffffffffffffffffffffffffffffffffffffffff1614158015611c6c57508273ffffffffffffffffffffffffffffffffffffffff168473ffffffffffffffffffffffffffffffffffffffff161480611c2d5750611c2c8484610ca3565b5b80611c6b57508273ffffffffffffffffffffffffffffffffffffffff16611c5383610f27565b73ffffffffffffffffffffffffffffffffffffffff16145b5b90509392505050565b600080600090507a184f03e93ff9f4daa797ed6e38ed64bf6a1f0100000000000000008310611cd3577a184f03e93ff9f4daa797ed6e38ed64bf6a1f0100000000000000008381611cc957611cc8612cb4565b5b0492506040810190505b6d04ee2d6d415b85acef81000000008310611d10576d04ee2d6d415b85acef81000000008381611d0657611d05612cb4565b5b0492506020810190505b662386f26fc100008310611d3f57662386f26fc100008381611d3557611d34612cb4565b5b0492506010810190505b6305f5e1008310611d68576305f5e1008381611d5e57611d5d612cb4565b5b0492506008810190505b6127108310611d8d576127108381611d8357611d82612cb4565b5b0492506004810190505b60648310611db05760648381611da657611da5612cb4565b5b0492506002810190505b600a8310611dbf576001810190505b80915050919050565b600073ffffffffffffffffffffffffffffffffffffffff168273ffffffffffffffffffffffffffffffffffffffff1603611e3a5760006040517f64a0ae92000000000000000000000000000000000000000000000000000000008152600401611e3191906120ef565b60405180910390fd5b6000611e4883836000610f85565b9050600073ffffffffffffffffffffffffffffffffffffffff168173ffffffffffffffffffffffffffffffffffffffff1614611ebc5760006040517f73c6ac6e000000000000000000000000000000000000000000000000000000008152600401611eb391906120ef565b60405180910390fd5b505050565b60006014905090565b6000604051905090565b600080fd5b600080fd5b60007fffffffff0000000000000000000000000000000000000000000000000000000082169050919050565b611f1381611ede565b8114611f1e57600080fd5b50565b600081359050611f3081611f0a565b92915050565b600060208284031215611f4c57611f4b611ed4565b5b6000611f5a84828501611f21565b91505092915050565b60008115159050919050565b611f7881611f63565b82525050565b6000602082019050611f936000830184611f6f565b92915050565b600081519050919050565b600082825260208201905092915050565b60005b83811015611fd3578082015181840152602081019050611fb8565b60008484015250505050565b6000601f19601f8301169050919050565b6000611ffb82611f99565b6120058185611fa4565b9350612015818560208601611fb5565b61201e81611fdf565b840191505092915050565b600060208201905081810360008301526120438184611ff0565b905092915050565b6000819050919050565b61205e8161204b565b811461206957600080fd5b50565b60008135905061207b81612055565b92915050565b60006020828403121561209757612096611ed4565b5b60006120a58482850161206c565b91505092915050565b600073ffffffffffffffffffffffffffffffffffffffff82169050919050565b60006120d9826120ae565b9050919050565b6120e9816120ce565b82525050565b600060208201905061210460008301846120e0565b92915050565b612113816120ce565b811461211e57600080fd5b50565b6000813590506121308161210a565b92915050565b6000806040838503121561214d5761214c611ed4565b5b600061215b85828601612121565b925050602061216c8582860161206c565b9150509250929050565b60008060006060848603121561218f5761218e611ed4565b5b600061219d86828701612121565b93505060206121ae86828701612121565b92505060406121bf8682870161206c565b9150509250925092565b6000602082840312156121df576121de611ed4565b5b60006121ed84828501612121565b91505092915050565b600081519050919050565b600082825260208201905092915050565b6000819050602082019050919050565b61222b8161204b565b82525050565b600061223d8383612222565b60208301905092915050565b6000602082019050919050565b6000612261826121f6565b61226b8185612201565b935061227683612212565b8060005b838110156122a757815161228e8882612231565b975061229983612249565b92505060018101905061227a565b5085935050505092915050565b600060208201905081810360008301526122ce8184612256565b905092915050565b6122df8161204b565b82525050565b60006020820190506122fa60008301846122d6565b92915050565b61230981611f63565b811461231457600080fd5b50565b60008135905061232681612300565b92915050565b6000806040838503121561234357612342611ed4565b5b600061235185828601612121565b925050602061236285828601612317565b9150509250929050565b600080fd5b600080fd5b7f4e487b7100000000000000000000000000000000000000000000000000000000600052604160045260246000fd5b6123ae82611fdf565b810181811067ffffffffffffffff821117156123cd576123cc612376565b5b80604052505050565b60006123e0611eca565b90506123ec82826123a5565b919050565b600067ffffffffffffffff82111561240c5761240b612376565b5b61241582611fdf565b9050602081019050919050565b82818337600083830152505050565b600061244461243f846123f1565b6123d6565b9050828152602081018484840111156124605761245f612371565b5b61246b848285612422565b509392505050565b600082601f8301126124885761248761236c565b5b8135612498848260208601612431565b91505092915050565b600080600080608085870312156124bb576124ba611ed4565b5b60006124c987828801612121565b94505060206124da87828801612121565b93505060406124eb8782880161206c565b925050606085013567ffffffffffffffff81111561250c5761250b611ed9565b5b61251887828801612473565b91505092959194509250565b600067ffffffffffffffff82111561253f5761253e612376565b5b61254882611fdf565b9050602081019050919050565b600061256861256384612524565b6123d6565b90508281526020810184848401111561258457612583612371565b5b61258f848285612422565b509392505050565b600082601f8301126125ac576125ab61236c565b5b81356125bc848260208601612555565b91505092915050565b6000602082840312156125db576125da611ed4565b5b600082013567ffffffffffffffff8111156125f9576125f8611ed9565b5b61260584828501612597565b91505092915050565b6000806040838503121561262557612624611ed4565b5b600061263385828601612121565b925050602061264485828601612121565b9150509250929050565b7f4e487b7100000000000000000000000000000000000000000000000000000000600052602260045260246000fd5b6000600282049050600182168061269557607f821691505b6020821081036126a8576126a761264e565b5b50919050565b60006060820190506126c360008301866120e0565b6126d060208301856122d6565b6126dd60408301846120e0565b949350505050565b7f4e487b7100000000000000000000000000000000000000000000000000000000600052603260045260246000fd5b7f4e487b7100000000000000000000000000000000000000000000000000000000600052601160045260246000fd5b600061274e8261204b565b91507fffffffffffffffffffffffffffffffffffffffffffffffffffffffffffffffff82036127805761277f612714565b5b600182019050919050565b600081905092915050565b60006127a182611f99565b6127ab818561278b565b93506127bb818560208601611fb5565b80840191505092915050565b60006127d38285612796565b91506127df8284612796565b91508190509392505050565b600060408201905061280060008301856122d6565b81810360208301526128128184611ff0565b90509392505050565b600081519050919050565b600082825260208201905092915050565b60006128428261281b565b61284c8185612826565b935061285c818560208601611fb5565b61286581611fdf565b840191505092915050565b600060808201905061288560008301876120e0565b61289260208301866120e0565b61289f60408301856122d6565b81810360608301526128b18184612837565b905095945050505050565b6000815190506128cb81611f0a565b92915050565b6000602082840312156128e7576128e6611ed4565b5b60006128f5848285016128bc565b91505092915050565b60008190508160005260206000209050919050565b60006020601f8301049050919050565b600082821b905092915050565b6000600883026129607fffffffffffffffffffffffffffffffffffffffffffffffffffffffffffffffff82612923565b61296a8683612923565b95508019841693508086168417925050509392505050565b6000819050919050565b60006129a76129a261299d8461204b565b612982565b61204b565b9050919050565b6000819050919050565b6129c18361298c565b6129d56129cd826129ae565b848454612930565b825550505050565b600090565b6129ea6129dd565b6129f58184846129b8565b505050565b5b81811015612a1957612a0e6000826129e2565b6001810190506129fb565b5050565b601f821115612a5e57612a2f816128fe565b612a3884612913565b81016020851015612a47578190505b612a5b612a5385612913565b8301826129fa565b50505b505050565b600082821c905092915050565b6000612a8160001984600802612a63565b1980831691505092915050565b6000612a9a8383612a70565b9150826002028217905092915050565b612ab382611f99565b67ffffffffffffffff811115612acc57612acb612376565b5b612ad6825461267d565b612ae1828285612a1d565b600060209050601f831160018114612b145760008415612b02578287015190505b612b0c8582612a8e565b865550612b74565b601f198416612b22866128fe565b60005b82811015612b4a57848901518255600182019150602085019450602081019050612b25565b86831015612b675784890151612b63601f891682612a70565b8355505b6001600288020188555050505b505050505050565b6000612b878261204b565b9150612b928361204b565b9250828203905081811115612baa57612ba9612714565b5b92915050565b600080fd5b600080fd5b60008085851115612bce57612bcd612bb0565b5b83861115612bdf57612bde612bb5565b5b6001850283019150848603905094509492505050565b600082905092915050565b60007fffffffffffffffffffffffffffffffffffffffff00000000000000000000000082169050919050565b6000612c388383612bf5565b82612c438135612c00565b92506014821015612c8357612c7e7fffffffffffffffffffffffffffffffffffffffff00000000000000000000000083601403600802612923565b831692505b505092915050565b6000604082019050612ca060008301856120e0565b612cad60208301846122d6565b9392505050565b7f4e487b7100000000000000000000000000000000000000000000000000000000600052601260045260246000fdfea264697066735822122063acf5b8db867805545436eb0decbc5b7f6ee68d5e407aab52dd7bc984067d2764736f6c634300081c0033",
  "linkReferences": {},
  "deployedLinkReferences": {}
}